{
	"Auction_1.sol": {
		"Auction": {
			"abi": [
				{
					"constant": false,
					"inputs": [],
					"name": "register",
					"outputs": [],
					"payable": true,
					"stateMutability": "payable",
					"type": "function"
				},
				{
					"constant": false,
					"inputs": [],
					"name": "AuctionConstructor",
					"outputs": [],
					"payable": true,
					"stateMutability": "payable",
					"type": "function"
				},
				{
					"constant": true,
					"inputs": [],
					"name": "beneficiary",
					"outputs": [
						{
							"name": "",
							"type": "address"
						}
					],
					"payable": false,
					"stateMutability": "view",
					"type": "function"
				},
				{
					"constant": false,
					"inputs": [
						{
							"name": "_itemId",
							"type": "uint256"
						},
						{
							"name": "_count",
							"type": "uint256"
						}
					],
					"name": "bid",
					"outputs": [],
					"payable": true,
					"stateMutability": "payable",
					"type": "function"
				},
				{
					"constant": true,
					"inputs": [
						{
							"name": "id",
							"type": "uint256"
						}
					],
					"name": "getPersonDetails",
					"outputs": [
						{
							"name": "",
							"type": "uint256"
						},
						{
							"name": "",
							"type": "uint256"
						},
						{
							"name": "",
							"type": "address"
						}
					],
					"payable": false,
					"stateMutability": "view",
					"type": "function"
				},
				{
					"constant": false,
					"inputs": [],
					"name": "revealWinners",
					"outputs": [],
					"payable": false,
					"stateMutability": "nonpayable",
					"type": "function"
				},
				{
					"constant": true,
					"inputs": [
						{
							"name": "",
							"type": "uint256"
						}
					],
					"name": "winners",
					"outputs": [
						{
							"name": "",
							"type": "address"
						}
					],
					"payable": false,
					"stateMutability": "view",
					"type": "function"
				},
				{
					"constant": true,
					"inputs": [
						{
							"name": "",
							"type": "uint256"
						}
					],
					"name": "items",
					"outputs": [
						{
							"name": "itemId",
							"type": "uint256"
						}
					],
					"payable": false,
					"stateMutability": "view",
					"type": "function"
				}
			],
			"devdoc": {
				"methods": {}
			},
			"evm": {
				"assembly": "    /* \"Auction_1.sol\":26:5710  contract Auction {\r... */\n  mstore(0x40, 0x80)\n    /* \"Auction_1.sol\":819:820  0 */\n  0x0\n    /* \"Auction_1.sol\":802:820  uint bidderCount=0 */\n  0x17\n  sstore\n    /* \"Auction_1.sol\":26:5710  contract Auction {\r... */\n  callvalue\n    /* \"--CODEGEN--\":8:17   */\n  dup1\n    /* \"--CODEGEN--\":5:7   */\n  iszero\n  tag_1\n  jumpi\n    /* \"--CODEGEN--\":30:31   */\n  0x0\n    /* \"--CODEGEN--\":27:28   */\n  dup1\n    /* \"--CODEGEN--\":20:32   */\n  revert\n    /* \"--CODEGEN--\":5:7   */\ntag_1:\n    /* \"Auction_1.sol\":26:5710  contract Auction {\r... */\n  pop\n  dataSize(sub_0)\n  dup1\n  dataOffset(sub_0)\n  0x0\n  codecopy\n  0x0\n  return\nstop\n\nsub_0: assembly {\n        /* \"Auction_1.sol\":26:5710  contract Auction {\r... */\n      mstore(0x40, 0x80)\n      jumpi(tag_1, lt(calldatasize, 0x4))\n      calldataload(0x0)\n      0x100000000000000000000000000000000000000000000000000000000\n      swap1\n      div\n      0xffffffff\n      and\n      dup1\n      0x1aa3a008\n      eq\n      tag_2\n      jumpi\n      dup1\n      0x2d8804b5\n      eq\n      tag_3\n      jumpi\n      dup1\n      0x38af3eed\n      eq\n      tag_4\n      jumpi\n      dup1\n      0x598647f8\n      eq\n      tag_5\n      jumpi\n      dup1\n      0x60981705\n      eq\n      tag_6\n      jumpi\n      dup1\n      0x952587d6\n      eq\n      tag_7\n      jumpi\n      dup1\n      0xa2fb1175\n      eq\n      tag_8\n      jumpi\n      dup1\n      0xbfb231d2\n      eq\n      tag_9\n      jumpi\n    tag_1:\n      0x0\n      dup1\n      revert\n        /* \"Auction_1.sol\":1615:2179  function register() public payable{\r... */\n    tag_2:\n      tag_10\n      jump(tag_11)\n    tag_10:\n      stop\n        /* \"Auction_1.sol\":857:1605  function AuctionConstructor() public payable{    //constructor\r... */\n    tag_3:\n      tag_12\n      jump(tag_13)\n    tag_12:\n      stop\n        /* \"Auction_1.sol\":738:764  address public beneficiary */\n    tag_4:\n      callvalue\n        /* \"--CODEGEN--\":8:17   */\n      dup1\n        /* \"--CODEGEN--\":5:7   */\n      iszero\n      tag_14\n      jumpi\n        /* \"--CODEGEN--\":30:31   */\n      0x0\n        /* \"--CODEGEN--\":27:28   */\n      dup1\n        /* \"--CODEGEN--\":20:32   */\n      revert\n        /* \"--CODEGEN--\":5:7   */\n    tag_14:\n        /* \"Auction_1.sol\":738:764  address public beneficiary */\n      pop\n      tag_15\n      jump(tag_16)\n    tag_15:\n      mload(0x40)\n      dup1\n      dup3\n      0xffffffffffffffffffffffffffffffffffffffff\n      and\n      0xffffffffffffffffffffffffffffffffffffffff\n      and\n      dup2\n      mstore\n      0x20\n      add\n      swap2\n      pop\n      pop\n      mload(0x40)\n      dup1\n      swap2\n      sub\n      swap1\n      return\n        /* \"Auction_1.sol\":2187:4030  function bid(uint _itemId, uint _count) public payable{\r... */\n    tag_5:\n      tag_17\n      0x4\n      dup1\n      calldatasize\n      sub\n      dup2\n      add\n      swap1\n      dup1\n      dup1\n      calldataload\n      swap1\n      0x20\n      add\n      swap1\n      swap3\n      swap2\n      swap1\n      dup1\n      calldataload\n      swap1\n      0x20\n      add\n      swap1\n      swap3\n      swap2\n      swap1\n      pop\n      pop\n      pop\n      jump(tag_18)\n    tag_17:\n      stop\n        /* \"Auction_1.sol\":5535:5705  function getPersonDetails(uint id) public constant returns(uint,uint,address){\r... */\n    tag_6:\n      callvalue\n        /* \"--CODEGEN--\":8:17   */\n      dup1\n        /* \"--CODEGEN--\":5:7   */\n      iszero\n      tag_19\n      jumpi\n        /* \"--CODEGEN--\":30:31   */\n      0x0\n        /* \"--CODEGEN--\":27:28   */\n      dup1\n        /* \"--CODEGEN--\":20:32   */\n      revert\n        /* \"--CODEGEN--\":5:7   */\n    tag_19:\n        /* \"Auction_1.sol\":5535:5705  function getPersonDetails(uint id) public constant returns(uint,uint,address){\r... */\n      pop\n      tag_20\n      0x4\n      dup1\n      calldatasize\n      sub\n      dup2\n      add\n      swap1\n      dup1\n      dup1\n      calldataload\n      swap1\n      0x20\n      add\n      swap1\n      swap3\n      swap2\n      swap1\n      pop\n      pop\n      pop\n      jump(tag_21)\n    tag_20:\n      mload(0x40)\n      dup1\n      dup5\n      dup2\n      mstore\n      0x20\n      add\n      dup4\n      dup2\n      mstore\n      0x20\n      add\n      dup3\n      0xffffffffffffffffffffffffffffffffffffffff\n      and\n      0xffffffffffffffffffffffffffffffffffffffff\n      and\n      dup2\n      mstore\n      0x20\n      add\n      swap4\n      pop\n      pop\n      pop\n      pop\n      mload(0x40)\n      dup1\n      swap2\n      sub\n      swap1\n      return\n        /* \"Auction_1.sol\":4378:5431  function revealWinners() public onlyOwner{\r... */\n    tag_7:\n      callvalue\n        /* \"--CODEGEN--\":8:17   */\n      dup1\n        /* \"--CODEGEN--\":5:7   */\n      iszero\n      tag_22\n      jumpi\n        /* \"--CODEGEN--\":30:31   */\n      0x0\n        /* \"--CODEGEN--\":27:28   */\n      dup1\n        /* \"--CODEGEN--\":20:32   */\n      revert\n        /* \"--CODEGEN--\":5:7   */\n    tag_22:\n        /* \"Auction_1.sol\":4378:5431  function revealWinners() public onlyOwner{\r... */\n      pop\n      tag_23\n      jump(tag_24)\n    tag_23:\n      stop\n        /* \"Auction_1.sol\":676:701  address[3] public winners */\n    tag_8:\n      callvalue\n        /* \"--CODEGEN--\":8:17   */\n      dup1\n        /* \"--CODEGEN--\":5:7   */\n      iszero\n      tag_25\n      jumpi\n        /* \"--CODEGEN--\":30:31   */\n      0x0\n        /* \"--CODEGEN--\":27:28   */\n      dup1\n        /* \"--CODEGEN--\":20:32   */\n      revert\n        /* \"--CODEGEN--\":5:7   */\n    tag_25:\n        /* \"Auction_1.sol\":676:701  address[3] public winners */\n      pop\n      tag_26\n      0x4\n      dup1\n      calldatasize\n      sub\n      dup2\n      add\n      swap1\n      dup1\n      dup1\n      calldataload\n      swap1\n      0x20\n      add\n      swap1\n      swap3\n      swap2\n      swap1\n      pop\n      pop\n      pop\n      jump(tag_27)\n    tag_26:\n      mload(0x40)\n      dup1\n      dup3\n      0xffffffffffffffffffffffffffffffffffffffff\n      and\n      0xffffffffffffffffffffffffffffffffffffffff\n      and\n      dup2\n      mstore\n      0x20\n      add\n      swap2\n      pop\n      pop\n      mload(0x40)\n      dup1\n      swap2\n      sub\n      swap1\n      return\n        /* \"Auction_1.sol\":615:636  Item [3] public items */\n    tag_9:\n      callvalue\n        /* \"--CODEGEN--\":8:17   */\n      dup1\n        /* \"--CODEGEN--\":5:7   */\n      iszero\n      tag_28\n      jumpi\n        /* \"--CODEGEN--\":30:31   */\n      0x0\n        /* \"--CODEGEN--\":27:28   */\n      dup1\n        /* \"--CODEGEN--\":20:32   */\n      revert\n        /* \"--CODEGEN--\":5:7   */\n    tag_28:\n        /* \"Auction_1.sol\":615:636  Item [3] public items */\n      pop\n      tag_29\n      0x4\n      dup1\n      calldatasize\n      sub\n      dup2\n      add\n      swap1\n      dup1\n      dup1\n      calldataload\n      swap1\n      0x20\n      add\n      swap1\n      swap3\n      swap2\n      swap1\n      pop\n      pop\n      pop\n      jump(tag_30)\n    tag_29:\n      mload(0x40)\n      dup1\n      dup3\n      dup2\n      mstore\n      0x20\n      add\n      swap2\n      pop\n      pop\n      mload(0x40)\n      dup1\n      swap2\n      sub\n      swap1\n      return\n        /* \"Auction_1.sol\":1615:2179  function register() public payable{\r... */\n    tag_11:\n        /* \"Auction_1.sol\":1696:1707  bidderCount */\n      sload(0x17)\n        /* \"Auction_1.sol\":1664:1671  bidders */\n      0x1\n        /* \"Auction_1.sol\":1672:1683  bidderCount */\n      sload(0x17)\n        /* \"Auction_1.sol\":1664:1684  bidders[bidderCount] */\n      0x4\n      dup2\n      lt\n      iszero\n      iszero\n      tag_32\n      jumpi\n      invalid\n    tag_32:\n      0x3\n      mul\n      add\n        /* \"Auction_1.sol\":1664:1693  bidders[bidderCount].personId */\n      0x1\n      add\n        /* \"Auction_1.sol\":1664:1707  bidders[bidderCount].personId = bidderCount */\n      dup2\n      swap1\n      sstore\n      pop\n        /* \"Auction_1.sol\":1979:1989  msg.sender */\n      caller\n        /* \"Auction_1.sol\":1951:1958  bidders */\n      0x1\n        /* \"Auction_1.sol\":1959:1970  bidderCount */\n      sload(0x17)\n        /* \"Auction_1.sol\":1951:1971  bidders[bidderCount] */\n      0x4\n      dup2\n      lt\n      iszero\n      iszero\n      tag_34\n      jumpi\n      invalid\n    tag_34:\n      0x3\n      mul\n      add\n        /* \"Auction_1.sol\":1951:1976  bidders[bidderCount].addr */\n      0x2\n      add\n      0x0\n        /* \"Auction_1.sol\":1951:1989  bidders[bidderCount].addr = msg.sender */\n      0x100\n      exp\n      dup2\n      sload\n      dup2\n      0xffffffffffffffffffffffffffffffffffffffff\n      mul\n      not\n      and\n      swap1\n      dup4\n      0xffffffffffffffffffffffffffffffffffffffff\n      and\n      mul\n      or\n      swap1\n      sstore\n      pop\n        /* \"Auction_1.sol\":2073:2074  5 */\n      0x5\n        /* \"Auction_1.sol\":2034:2041  bidders */\n      0x1\n        /* \"Auction_1.sol\":2042:2053  bidderCount */\n      sload(0x17)\n        /* \"Auction_1.sol\":2034:2054  bidders[bidderCount] */\n      0x4\n      dup2\n      lt\n      iszero\n      iszero\n      tag_36\n      jumpi\n      invalid\n    tag_36:\n      0x3\n      mul\n      add\n        /* \"Auction_1.sol\":2034:2070  bidders[bidderCount].remainingTokens */\n      0x0\n      add\n        /* \"Auction_1.sol\":2034:2074  bidders[bidderCount].remainingTokens = 5 */\n      dup2\n      swap1\n      sstore\n      pop\n        /* \"Auction_1.sol\":2127:2134  bidders */\n      0x1\n        /* \"Auction_1.sol\":2135:2146  bidderCount */\n      sload(0x17)\n        /* \"Auction_1.sol\":2127:2147  bidders[bidderCount] */\n      0x4\n      dup2\n      lt\n      iszero\n      iszero\n      tag_38\n      jumpi\n      invalid\n    tag_38:\n      0x3\n      mul\n      add\n        /* \"Auction_1.sol\":2102:2114  tokenDetails */\n      0x0\n        /* \"Auction_1.sol\":2102:2126  tokenDetails[msg.sender] */\n      dup1\n        /* \"Auction_1.sol\":2115:2125  msg.sender */\n      caller\n        /* \"Auction_1.sol\":2102:2126  tokenDetails[msg.sender] */\n      0xffffffffffffffffffffffffffffffffffffffff\n      and\n      0xffffffffffffffffffffffffffffffffffffffff\n      and\n      dup2\n      mstore\n      0x20\n      add\n      swap1\n      dup2\n      mstore\n      0x20\n      add\n      0x0\n      keccak256\n        /* \"Auction_1.sol\":2102:2147  tokenDetails[msg.sender]=bidders[bidderCount] */\n      0x0\n      dup3\n      add\n      sload\n      dup2\n      0x0\n      add\n      sstore\n      0x1\n      dup3\n      add\n      sload\n      dup2\n      0x1\n      add\n      sstore\n      0x2\n      dup3\n      add\n      0x0\n      swap1\n      sload\n      swap1\n      0x100\n      exp\n      swap1\n      div\n      0xffffffffffffffffffffffffffffffffffffffff\n      and\n      dup2\n      0x2\n      add\n      exp(0x100, 0x0)\n      dup2\n      sload\n      dup2\n      0xffffffffffffffffffffffffffffffffffffffff\n      mul\n      not\n      and\n      swap1\n      dup4\n      0xffffffffffffffffffffffffffffffffffffffff\n      and\n      mul\n      or\n      swap1\n      sstore\n      pop\n      swap1\n      pop\n      pop\n        /* \"Auction_1.sol\":2158:2169  bidderCount */\n      0x17\n      0x0\n        /* \"Auction_1.sol\":2158:2171  bidderCount++ */\n      dup2\n      sload\n      dup1\n      swap3\n      swap2\n      swap1\n      0x1\n      add\n      swap2\n      swap1\n      pop\n      sstore\n      pop\n        /* \"Auction_1.sol\":1615:2179  function register() public payable{\r... */\n      jump\t// out\n        /* \"Auction_1.sol\":857:1605  function AuctionConstructor() public payable{    //constructor\r... */\n    tag_13:\n        /* \"Auction_1.sol\":1227:1251  uint[] memory emptyArray */\n      0x60\n        /* \"Auction_1.sol\":1171:1181  msg.sender */\n      caller\n        /* \"Auction_1.sol\":1157:1168  beneficiary */\n      0x16\n      0x0\n        /* \"Auction_1.sol\":1157:1181  beneficiary = msg.sender */\n      0x100\n      exp\n      dup2\n      sload\n      dup2\n      0xffffffffffffffffffffffffffffffffffffffff\n      mul\n      not\n      and\n      swap1\n      dup4\n      0xffffffffffffffffffffffffffffffffffffffff\n      and\n      mul\n      or\n      swap1\n      sstore\n      pop\n        /* \"Auction_1.sol\":1273:1311  Item({itemId:0,itemTokens:emptyArray}) */\n      0x40\n      dup1\n      mload\n      swap1\n      dup2\n      add\n      0x40\n      mstore\n      dup1\n        /* \"Auction_1.sol\":1286:1287  0 */\n      0x0\n        /* \"Auction_1.sol\":1273:1311  Item({itemId:0,itemTokens:emptyArray}) */\n      dup2\n      mstore\n      0x20\n      add\n        /* \"Auction_1.sol\":1299:1309  emptyArray */\n      dup3\n        /* \"Auction_1.sol\":1273:1311  Item({itemId:0,itemTokens:emptyArray}) */\n      dup2\n      mstore\n      pop\n        /* \"Auction_1.sol\":1262:1267  items */\n      0xd\n        /* \"Auction_1.sol\":1268:1269  0 */\n      0x0\n        /* \"Auction_1.sol\":1262:1270  items[0] */\n      0x3\n      dup2\n      lt\n      iszero\n      iszero\n      tag_41\n      jumpi\n      invalid\n    tag_41:\n      0x2\n      mul\n      add\n        /* \"Auction_1.sol\":1262:1311  items[0] = Item({itemId:0,itemTokens:emptyArray}) */\n      0x0\n      dup3\n      add\n      mload\n      dup2\n      0x0\n      add\n      sstore\n      0x20\n      dup3\n      add\n      mload\n      dup2\n      0x1\n      add\n      swap1\n      dup1\n      mload\n      swap1\n      0x20\n      add\n      swap1\n      tag_43\n      swap3\n      swap2\n      swap1\n      jump\t// in(tag_44)\n    tag_43:\n      pop\n      swap1\n      pop\n      pop\n        /* \"Auction_1.sol\":1464:1504  Item({itemId:1, itemTokens: emptyArray}) */\n      0x40\n      dup1\n      mload\n      swap1\n      dup2\n      add\n      0x40\n      mstore\n      dup1\n        /* \"Auction_1.sol\":1477:1478  1 */\n      0x1\n        /* \"Auction_1.sol\":1464:1504  Item({itemId:1, itemTokens: emptyArray}) */\n      dup2\n      mstore\n      0x20\n      add\n        /* \"Auction_1.sol\":1492:1502  emptyArray */\n      dup3\n        /* \"Auction_1.sol\":1464:1504  Item({itemId:1, itemTokens: emptyArray}) */\n      dup2\n      mstore\n      pop\n        /* \"Auction_1.sol\":1453:1458  items */\n      0xd\n        /* \"Auction_1.sol\":1459:1460  1 */\n      0x1\n        /* \"Auction_1.sol\":1453:1461  items[1] */\n      0x3\n      dup2\n      lt\n      iszero\n      iszero\n      tag_45\n      jumpi\n      invalid\n    tag_45:\n      0x2\n      mul\n      add\n        /* \"Auction_1.sol\":1453:1504  items[1] = Item({itemId:1, itemTokens: emptyArray}) */\n      0x0\n      dup3\n      add\n      mload\n      dup2\n      0x0\n      add\n      sstore\n      0x20\n      dup3\n      add\n      mload\n      dup2\n      0x1\n      add\n      swap1\n      dup1\n      mload\n      swap1\n      0x20\n      add\n      swap1\n      tag_47\n      swap3\n      swap2\n      swap1\n      jump\t// in(tag_44)\n    tag_47:\n      pop\n      swap1\n      pop\n      pop\n        /* \"Auction_1.sol\":1526:1566  Item({itemId:2, itemTokens: emptyArray}) */\n      0x40\n      dup1\n      mload\n      swap1\n      dup2\n      add\n      0x40\n      mstore\n      dup1\n        /* \"Auction_1.sol\":1539:1540  2 */\n      0x2\n        /* \"Auction_1.sol\":1526:1566  Item({itemId:2, itemTokens: emptyArray}) */\n      dup2\n      mstore\n      0x20\n      add\n        /* \"Auction_1.sol\":1554:1564  emptyArray */\n      dup3\n        /* \"Auction_1.sol\":1526:1566  Item({itemId:2, itemTokens: emptyArray}) */\n      dup2\n      mstore\n      pop\n        /* \"Auction_1.sol\":1515:1520  items */\n      0xd\n        /* \"Auction_1.sol\":1521:1522  2 */\n      0x2\n        /* \"Auction_1.sol\":1515:1523  items[2] */\n      0x3\n      dup2\n      lt\n      iszero\n      iszero\n      tag_48\n      jumpi\n      invalid\n    tag_48:\n      0x2\n      mul\n      add\n        /* \"Auction_1.sol\":1515:1566  items[2] = Item({itemId:2, itemTokens: emptyArray}) */\n      0x0\n      dup3\n      add\n      mload\n      dup2\n      0x0\n      add\n      sstore\n      0x20\n      dup3\n      add\n      mload\n      dup2\n      0x1\n      add\n      swap1\n      dup1\n      mload\n      swap1\n      0x20\n      add\n      swap1\n      tag_50\n      swap3\n      swap2\n      swap1\n      jump\t// in(tag_44)\n    tag_50:\n      pop\n      swap1\n      pop\n      pop\n        /* \"Auction_1.sol\":857:1605  function AuctionConstructor() public payable{    //constructor\r... */\n      pop\n      jump\t// out\n        /* \"Auction_1.sol\":738:764  address public beneficiary */\n    tag_16:\n      0x16\n      0x0\n      swap1\n      sload\n      swap1\n      0x100\n      exp\n      swap1\n      div\n      0xffffffffffffffffffffffffffffffffffffffff\n      and\n      dup2\n      jump\t// out\n        /* \"Auction_1.sol\":2187:4030  function bid(uint _itemId, uint _count) public payable{\r... */\n    tag_18:\n        /* \"Auction_1.sol\":3583:3595  uint balance */\n      0x0\n        /* \"Auction_1.sol\":3862:3882  Item storage bidItem */\n      dup1\n        /* \"Auction_1.sol\":3914:3920  uint i */\n      0x0\n        /* \"Auction_1.sol\":3052:3058  _count */\n      dup4\n        /* \"Auction_1.sol\":3009:3021  tokenDetails */\n      0x0\n        /* \"Auction_1.sol\":3009:3033  tokenDetails[msg.sender] */\n      dup1\n        /* \"Auction_1.sol\":3022:3032  msg.sender */\n      caller\n        /* \"Auction_1.sol\":3009:3033  tokenDetails[msg.sender] */\n      0xffffffffffffffffffffffffffffffffffffffff\n      and\n      0xffffffffffffffffffffffffffffffffffffffff\n      and\n      dup2\n      mstore\n      0x20\n      add\n      swap1\n      dup2\n      mstore\n      0x20\n      add\n      0x0\n      keccak256\n        /* \"Auction_1.sol\":3009:3049  tokenDetails[msg.sender].remainingTokens */\n      0x0\n      add\n      sload\n        /* \"Auction_1.sol\":3009:3058  tokenDetails[msg.sender].remainingTokens < _count */\n      lt\n        /* \"Auction_1.sol\":3009:3107  tokenDetails[msg.sender].remainingTokens < _count || tokenDetails[msg.sender].remainingTokens == 0 */\n      dup1\n      tag_52\n      jumpi\n      pop\n        /* \"Auction_1.sol\":3106:3107  0 */\n      0x0\n        /* \"Auction_1.sol\":3062:3074  tokenDetails */\n      dup1\n        /* \"Auction_1.sol\":3062:3086  tokenDetails[msg.sender] */\n      0x0\n        /* \"Auction_1.sol\":3075:3085  msg.sender */\n      caller\n        /* \"Auction_1.sol\":3062:3086  tokenDetails[msg.sender] */\n      0xffffffffffffffffffffffffffffffffffffffff\n      and\n      0xffffffffffffffffffffffffffffffffffffffff\n      and\n      dup2\n      mstore\n      0x20\n      add\n      swap1\n      dup2\n      mstore\n      0x20\n      add\n      0x0\n      keccak256\n        /* \"Auction_1.sol\":3062:3102  tokenDetails[msg.sender].remainingTokens */\n      0x0\n      add\n      sload\n        /* \"Auction_1.sol\":3062:3107  tokenDetails[msg.sender].remainingTokens == 0 */\n      eq\n        /* \"Auction_1.sol\":3009:3107  tokenDetails[msg.sender].remainingTokens < _count || tokenDetails[msg.sender].remainingTokens == 0 */\n    tag_52:\n        /* \"Auction_1.sol\":3005:3118  if( tokenDetails[msg.sender].remainingTokens < _count || tokenDetails[msg.sender].remainingTokens == 0 ) revert() */\n      iszero\n      tag_53\n      jumpi\n        /* \"Auction_1.sol\":3110:3118  revert() */\n      0x0\n      dup1\n      revert\n        /* \"Auction_1.sol\":3005:3118  if( tokenDetails[msg.sender].remainingTokens < _count || tokenDetails[msg.sender].remainingTokens == 0 ) revert() */\n    tag_53:\n        /* \"Auction_1.sol\":3142:3143  2 */\n      0x2\n        /* \"Auction_1.sol\":3132:3139  _itemId */\n      dup6\n        /* \"Auction_1.sol\":3132:3143  _itemId > 2 */\n      gt\n        /* \"Auction_1.sol\":3129:3153  if(_itemId > 2) revert() */\n      iszero\n      tag_54\n      jumpi\n        /* \"Auction_1.sol\":3145:3153  revert() */\n      0x0\n      dup1\n      revert\n        /* \"Auction_1.sol\":3129:3153  if(_itemId > 2) revert() */\n    tag_54:\n        /* \"Auction_1.sol\":3507:3513  _count */\n      dup4\n        /* \"Auction_1.sol\":3464:3476  tokenDetails */\n      0x0\n        /* \"Auction_1.sol\":3464:3488  tokenDetails[msg.sender] */\n      dup1\n        /* \"Auction_1.sol\":3477:3487  msg.sender */\n      caller\n        /* \"Auction_1.sol\":3464:3488  tokenDetails[msg.sender] */\n      0xffffffffffffffffffffffffffffffffffffffff\n      and\n      0xffffffffffffffffffffffffffffffffffffffff\n      and\n      dup2\n      mstore\n      0x20\n      add\n      swap1\n      dup2\n      mstore\n      0x20\n      add\n      0x0\n      keccak256\n        /* \"Auction_1.sol\":3464:3504  tokenDetails[msg.sender].remainingTokens */\n      0x0\n      add\n      sload\n        /* \"Auction_1.sol\":3464:3513  tokenDetails[msg.sender].remainingTokens - _count */\n      sub\n        /* \"Auction_1.sol\":3421:3433  tokenDetails */\n      0x0\n        /* \"Auction_1.sol\":3421:3445  tokenDetails[msg.sender] */\n      dup1\n        /* \"Auction_1.sol\":3434:3444  msg.sender */\n      caller\n        /* \"Auction_1.sol\":3421:3445  tokenDetails[msg.sender] */\n      0xffffffffffffffffffffffffffffffffffffffff\n      and\n      0xffffffffffffffffffffffffffffffffffffffff\n      and\n      dup2\n      mstore\n      0x20\n      add\n      swap1\n      dup2\n      mstore\n      0x20\n      add\n      0x0\n      keccak256\n        /* \"Auction_1.sol\":3421:3461  tokenDetails[msg.sender].remainingTokens */\n      0x0\n      add\n        /* \"Auction_1.sol\":3421:3513  tokenDetails[msg.sender].remainingTokens = tokenDetails[msg.sender].remainingTokens - _count */\n      dup2\n      swap1\n      sstore\n      pop\n        /* \"Auction_1.sol\":3596:3608  tokenDetails */\n      0x0\n        /* \"Auction_1.sol\":3596:3620  tokenDetails[msg.sender] */\n      dup1\n        /* \"Auction_1.sol\":3609:3619  msg.sender */\n      caller\n        /* \"Auction_1.sol\":3596:3620  tokenDetails[msg.sender] */\n      0xffffffffffffffffffffffffffffffffffffffff\n      and\n      0xffffffffffffffffffffffffffffffffffffffff\n      and\n      dup2\n      mstore\n      0x20\n      add\n      swap1\n      dup2\n      mstore\n      0x20\n      add\n      0x0\n      keccak256\n        /* \"Auction_1.sol\":3596:3636  tokenDetails[msg.sender].remainingTokens */\n      0x0\n      add\n      sload\n        /* \"Auction_1.sol\":3583:3636  uint balance=tokenDetails[msg.sender].remainingTokens */\n      swap3\n      pop\n        /* \"Auction_1.sol\":3722:3729  balance */\n      dup3\n        /* \"Auction_1.sol\":3681:3693  tokenDetails */\n      0x0\n        /* \"Auction_1.sol\":3681:3705  tokenDetails[msg.sender] */\n      dup1\n        /* \"Auction_1.sol\":3694:3704  msg.sender */\n      caller\n        /* \"Auction_1.sol\":3681:3705  tokenDetails[msg.sender] */\n      0xffffffffffffffffffffffffffffffffffffffff\n      and\n      0xffffffffffffffffffffffffffffffffffffffff\n      and\n      dup2\n      mstore\n      0x20\n      add\n      swap1\n      dup2\n      mstore\n      0x20\n      add\n      0x0\n      keccak256\n        /* \"Auction_1.sol\":3681:3721  tokenDetails[msg.sender].remainingTokens */\n      0x0\n      add\n        /* \"Auction_1.sol\":3681:3729  tokenDetails[msg.sender].remainingTokens=balance */\n      dup2\n      swap1\n      sstore\n      pop\n        /* \"Auction_1.sol\":3799:3806  balance */\n      dup3\n        /* \"Auction_1.sol\":3740:3747  bidders */\n      0x1\n        /* \"Auction_1.sol\":3748:3760  tokenDetails */\n      0x0\n        /* \"Auction_1.sol\":3748:3772  tokenDetails[msg.sender] */\n      dup1\n        /* \"Auction_1.sol\":3761:3771  msg.sender */\n      caller\n        /* \"Auction_1.sol\":3748:3772  tokenDetails[msg.sender] */\n      0xffffffffffffffffffffffffffffffffffffffff\n      and\n      0xffffffffffffffffffffffffffffffffffffffff\n      and\n      dup2\n      mstore\n      0x20\n      add\n      swap1\n      dup2\n      mstore\n      0x20\n      add\n      0x0\n      keccak256\n        /* \"Auction_1.sol\":3748:3781  tokenDetails[msg.sender].personId */\n      0x1\n      add\n      sload\n        /* \"Auction_1.sol\":3740:3782  bidders[tokenDetails[msg.sender].personId] */\n      0x4\n      dup2\n      lt\n      iszero\n      iszero\n      tag_55\n      jumpi\n      invalid\n    tag_55:\n      0x3\n      mul\n      add\n        /* \"Auction_1.sol\":3740:3798  bidders[tokenDetails[msg.sender].personId].remainingTokens */\n      0x0\n      add\n        /* \"Auction_1.sol\":3740:3806  bidders[tokenDetails[msg.sender].personId].remainingTokens=balance */\n      dup2\n      swap1\n      sstore\n      pop\n        /* \"Auction_1.sol\":3885:3890  items */\n      0xd\n        /* \"Auction_1.sol\":3891:3898  _itemId */\n      dup6\n        /* \"Auction_1.sol\":3885:3899  items[_itemId] */\n      0x3\n      dup2\n      lt\n      iszero\n      iszero\n      tag_57\n      jumpi\n      invalid\n    tag_57:\n      0x2\n      mul\n      add\n        /* \"Auction_1.sol\":3862:3899  Item storage bidItem = items[_itemId] */\n      swap2\n      pop\n        /* \"Auction_1.sol\":3921:3922  0 */\n      0x0\n        /* \"Auction_1.sol\":3914:3922  uint i=0 */\n      swap1\n      pop\n        /* \"Auction_1.sol\":3910:4023  for(uint i=0; i<_count;i++) {\r... */\n    tag_59:\n        /* \"Auction_1.sol\":3926:3932  _count */\n      dup4\n        /* \"Auction_1.sol\":3924:3925  i */\n      dup2\n        /* \"Auction_1.sol\":3924:3932  i<_count */\n      lt\n        /* \"Auction_1.sol\":3910:4023  for(uint i=0; i<_count;i++) {\r... */\n      iszero\n      tag_60\n      jumpi\n        /* \"Auction_1.sol\":3953:3960  bidItem */\n      dup2\n        /* \"Auction_1.sol\":3953:3971  bidItem.itemTokens */\n      0x1\n      add\n        /* \"Auction_1.sol\":3977:3989  tokenDetails */\n      0x0\n        /* \"Auction_1.sol\":3977:4001  tokenDetails[msg.sender] */\n      dup1\n        /* \"Auction_1.sol\":3990:4000  msg.sender */\n      caller\n        /* \"Auction_1.sol\":3977:4001  tokenDetails[msg.sender] */\n      0xffffffffffffffffffffffffffffffffffffffff\n      and\n      0xffffffffffffffffffffffffffffffffffffffff\n      and\n      dup2\n      mstore\n      0x20\n      add\n      swap1\n      dup2\n      mstore\n      0x20\n      add\n      0x0\n      keccak256\n        /* \"Auction_1.sol\":3977:4010  tokenDetails[msg.sender].personId */\n      0x1\n      add\n      sload\n        /* \"Auction_1.sol\":3953:4011  bidItem.itemTokens.push(tokenDetails[msg.sender].personId) */\n      swap1\n      dup1\n        /* \"--CODEGEN--\":39:40   */\n      0x1\n        /* \"--CODEGEN--\":33:36   */\n      dup2\n        /* \"--CODEGEN--\":27:37   */\n      sload\n        /* \"--CODEGEN--\":23:41   */\n      add\n        /* \"--CODEGEN--\":57:67   */\n      dup1\n        /* \"--CODEGEN--\":52:55   */\n      dup3\n        /* \"--CODEGEN--\":45:68   */\n      sstore\n        /* \"--CODEGEN--\":79:89   */\n      dup1\n        /* \"--CODEGEN--\":72:89   */\n      swap2\n      pop\n        /* \"--CODEGEN--\":0:93   */\n      pop\n        /* \"Auction_1.sol\":3953:4011  bidItem.itemTokens.push(tokenDetails[msg.sender].personId) */\n      swap1\n      0x1\n      dup3\n      sub\n      swap1\n      0x0\n      mstore\n      keccak256(0x0, 0x20)\n      add\n      0x0\n      swap1\n      swap2\n      swap3\n      swap1\n      swap2\n      swap1\n      swap2\n      pop\n      sstore\n      pop\n        /* \"Auction_1.sol\":3933:3936  i++ */\n      dup1\n      dup1\n      0x1\n      add\n      swap2\n      pop\n      pop\n        /* \"Auction_1.sol\":3910:4023  for(uint i=0; i<_count;i++) {\r... */\n      jump(tag_59)\n    tag_60:\n        /* \"Auction_1.sol\":2187:4030  function bid(uint _itemId, uint _count) public payable{\r... */\n      pop\n      pop\n      pop\n      pop\n      pop\n      jump\t// out\n        /* \"Auction_1.sol\":5535:5705  function getPersonDetails(uint id) public constant returns(uint,uint,address){\r... */\n    tag_21:\n        /* \"Auction_1.sol\":5594:5598  uint */\n      0x0\n        /* \"Auction_1.sol\":5599:5603  uint */\n      dup1\n        /* \"Auction_1.sol\":5604:5611  address */\n      0x0\n        /* \"Auction_1.sol\":5631:5638  bidders */\n      0x1\n        /* \"Auction_1.sol\":5639:5641  id */\n      dup5\n        /* \"Auction_1.sol\":5631:5642  bidders[id] */\n      0x4\n      dup2\n      lt\n      iszero\n      iszero\n      tag_64\n      jumpi\n      invalid\n    tag_64:\n      0x3\n      mul\n      add\n        /* \"Auction_1.sol\":5631:5658  bidders[id].remainingTokens */\n      0x0\n      add\n      sload\n        /* \"Auction_1.sol\":5659:5666  bidders */\n      0x1\n        /* \"Auction_1.sol\":5667:5669  id */\n      dup6\n        /* \"Auction_1.sol\":5659:5670  bidders[id] */\n      0x4\n      dup2\n      lt\n      iszero\n      iszero\n      tag_66\n      jumpi\n      invalid\n    tag_66:\n      0x3\n      mul\n      add\n        /* \"Auction_1.sol\":5659:5679  bidders[id].personId */\n      0x1\n      add\n      sload\n        /* \"Auction_1.sol\":5680:5687  bidders */\n      0x1\n        /* \"Auction_1.sol\":5688:5690  id */\n      dup7\n        /* \"Auction_1.sol\":5680:5691  bidders[id] */\n      0x4\n      dup2\n      lt\n      iszero\n      iszero\n      tag_68\n      jumpi\n      invalid\n    tag_68:\n      0x3\n      mul\n      add\n        /* \"Auction_1.sol\":5680:5696  bidders[id].addr */\n      0x2\n      add\n      0x0\n      swap1\n      sload\n      swap1\n      0x100\n      exp\n      swap1\n      div\n      0xffffffffffffffffffffffffffffffffffffffff\n      and\n        /* \"Auction_1.sol\":5623:5697  return (bidders[id].remainingTokens,bidders[id].personId,bidders[id].addr) */\n      swap3\n      pop\n      swap3\n      pop\n      swap3\n      pop\n        /* \"Auction_1.sol\":5535:5705  function getPersonDetails(uint id) public constant returns(uint,uint,address){\r... */\n      swap2\n      swap4\n      swap1\n      swap3\n      pop\n      jump\t// out\n        /* \"Auction_1.sol\":4378:5431  function revealWinners() public onlyOwner{\r... */\n    tag_24:\n        /* \"Auction_1.sol\":4607:4614  uint id */\n      0x0\n        /* \"Auction_1.sol\":4649:4673  Item storage currentItem */\n      dup1\n        /* \"Auction_1.sol\":4802:4818  uint randomIndex */\n      0x0\n        /* \"Auction_1.sol\":4958:4971  uint winnerId */\n      dup1\n        /* \"Auction_1.sol\":4617:4618  0 */\n      0x0\n        /* \"Auction_1.sol\":4607:4618  uint id = 0 */\n      swap4\n      pop\n        /* \"Auction_1.sol\":4602:5424  for (uint id = 0; id < 3; id++) {\r... */\n    tag_72:\n        /* \"Auction_1.sol\":4625:4626  3 */\n      0x3\n        /* \"Auction_1.sol\":4620:4622  id */\n      dup5\n        /* \"Auction_1.sol\":4620:4626  id < 3 */\n      lt\n        /* \"Auction_1.sol\":4602:5424  for (uint id = 0; id < 3; id++) {\r... */\n      iszero\n      tag_73\n      jumpi\n        /* \"Auction_1.sol\":4674:4679  items */\n      0xd\n        /* \"Auction_1.sol\":4680:4682  id */\n      dup5\n        /* \"Auction_1.sol\":4674:4683  items[id] */\n      0x3\n      dup2\n      lt\n      iszero\n      iszero\n      tag_75\n      jumpi\n      invalid\n    tag_75:\n      0x2\n      mul\n      add\n        /* \"Auction_1.sol\":4649:4683  Item storage currentItem=items[id] */\n      swap3\n      pop\n        /* \"Auction_1.sol\":4734:4735  0 */\n      0x0\n        /* \"Auction_1.sol\":4701:4712  currentItem */\n      dup4\n        /* \"Auction_1.sol\":4701:4723  currentItem.itemTokens */\n      0x1\n      add\n        /* \"Auction_1.sol\":4701:4730  currentItem.itemTokens.length */\n      dup1\n      sload\n      swap1\n      pop\n        /* \"Auction_1.sol\":4701:4735  currentItem.itemTokens.length != 0 */\n      eq\n      iszero\n        /* \"Auction_1.sol\":4698:5413  if(currentItem.itemTokens.length != 0){\r... */\n      iszero\n      tag_77\n      jumpi\n        /* \"Auction_1.sol\":4869:4880  currentItem */\n      dup3\n        /* \"Auction_1.sol\":4869:4891  currentItem.itemTokens */\n      0x1\n      add\n        /* \"Auction_1.sol\":4869:4898  currentItem.itemTokens.length */\n      dup1\n      sload\n      swap1\n      pop\n        /* \"Auction_1.sol\":4837:4848  currentItem */\n      dup4\n        /* \"Auction_1.sol\":4837:4859  currentItem.itemTokens */\n      0x1\n      add\n        /* \"Auction_1.sol\":4837:4866  currentItem.itemTokens.length */\n      dup1\n      sload\n      swap1\n      pop\n        /* \"Auction_1.sol\":4822:4834  block.number */\n      number\n        /* \"Auction_1.sol\":4822:4866  block.number / currentItem.itemTokens.length */\n      dup2\n      iszero\n      iszero\n      tag_78\n      jumpi\n      invalid\n    tag_78:\n      div\n        /* \"Auction_1.sol\":4821:4898  (block.number / currentItem.itemTokens.length)% currentItem.itemTokens.length */\n      dup2\n      iszero\n      iszero\n      tag_79\n      jumpi\n      invalid\n    tag_79:\n      mod\n        /* \"Auction_1.sol\":4802:4898  uint randomIndex = (block.number / currentItem.itemTokens.length)% currentItem.itemTokens.length */\n      swap2\n      pop\n        /* \"Auction_1.sol\":4974:4985  currentItem */\n      dup3\n        /* \"Auction_1.sol\":4974:4996  currentItem.itemTokens */\n      0x1\n      add\n        /* \"Auction_1.sol\":4997:5008  randomIndex */\n      dup3\n        /* \"Auction_1.sol\":4974:5009  currentItem.itemTokens[randomIndex] */\n      dup2\n      sload\n      dup2\n      lt\n      iszero\n      iszero\n      tag_80\n      jumpi\n      invalid\n    tag_80:\n      swap1\n      0x0\n      mstore\n      keccak256(0x0, 0x20)\n      add\n      sload\n        /* \"Auction_1.sol\":4958:5009  uint winnerId = currentItem.itemTokens[randomIndex] */\n      swap1\n      pop\n        /* \"Auction_1.sol\":5338:5345  bidders */\n      0x1\n        /* \"Auction_1.sol\":5346:5354  winnerId */\n      dup2\n        /* \"Auction_1.sol\":5338:5355  bidders[winnerId] */\n      0x4\n      dup2\n      lt\n      iszero\n      iszero\n      tag_82\n      jumpi\n      invalid\n    tag_82:\n      0x3\n      mul\n      add\n        /* \"Auction_1.sol\":5338:5360  bidders[winnerId].addr */\n      0x2\n      add\n      0x0\n      swap1\n      sload\n      swap1\n      0x100\n      exp\n      swap1\n      div\n      0xffffffffffffffffffffffffffffffffffffffff\n      and\n        /* \"Auction_1.sol\":5324:5331  winners */\n      0x13\n        /* \"Auction_1.sol\":5332:5334  id */\n      dup6\n        /* \"Auction_1.sol\":5324:5335  winners[id] */\n      0x3\n      dup2\n      lt\n      iszero\n      iszero\n      tag_84\n      jumpi\n      invalid\n    tag_84:\n      add\n      0x0\n        /* \"Auction_1.sol\":5324:5360  winners[id] = bidders[winnerId].addr */\n      0x100\n      exp\n      dup2\n      sload\n      dup2\n      0xffffffffffffffffffffffffffffffffffffffff\n      mul\n      not\n      and\n      swap1\n      dup4\n      0xffffffffffffffffffffffffffffffffffffffff\n      and\n      mul\n      or\n      swap1\n      sstore\n      pop\n        /* \"Auction_1.sol\":4698:5413  if(currentItem.itemTokens.length != 0){\r... */\n    tag_77:\n        /* \"Auction_1.sol\":4628:4632  id++ */\n      dup4\n      dup1\n      0x1\n      add\n      swap5\n      pop\n      pop\n        /* \"Auction_1.sol\":4602:5424  for (uint id = 0; id < 3; id++) {\r... */\n      jump(tag_72)\n    tag_73:\n        /* \"Auction_1.sol\":4378:5431  function revealWinners() public onlyOwner{\r... */\n      pop\n      pop\n      pop\n      pop\n      jump\t// out\n        /* \"Auction_1.sol\":676:701  address[3] public winners */\n    tag_27:\n      0x13\n      dup2\n      0x3\n      dup2\n      lt\n      iszero\n      iszero\n      tag_86\n      jumpi\n      invalid\n    tag_86:\n      add\n      0x0\n      swap2\n      pop\n      sload\n      swap1\n      0x100\n      exp\n      swap1\n      div\n      0xffffffffffffffffffffffffffffffffffffffff\n      and\n      dup2\n      jump\t// out\n        /* \"Auction_1.sol\":615:636  Item [3] public items */\n    tag_30:\n      0xd\n      dup2\n      0x3\n      dup2\n      lt\n      iszero\n      iszero\n      tag_88\n      jumpi\n      invalid\n    tag_88:\n      0x2\n      mul\n      add\n      0x0\n      swap2\n      pop\n      swap1\n      pop\n      dup1\n      0x0\n      add\n      sload\n      swap1\n      pop\n      dup2\n      jump\t// out\n        /* \"Auction_1.sol\":26:5710  contract Auction {\r... */\n    tag_44:\n      dup3\n      dup1\n      sload\n      dup3\n      dup3\n      sstore\n      swap1\n      0x0\n      mstore\n      keccak256(0x0, 0x20)\n      swap1\n      dup2\n      add\n      swap3\n      dup3\n      iszero\n      tag_90\n      jumpi\n      swap2\n      0x20\n      mul\n      dup3\n      add\n    tag_91:\n      dup3\n      dup2\n      gt\n      iszero\n      tag_92\n      jumpi\n      dup3\n      mload\n      dup3\n      sstore\n      swap2\n      0x20\n      add\n      swap2\n      swap1\n      0x1\n      add\n      swap1\n      jump(tag_91)\n    tag_92:\n    tag_90:\n      pop\n      swap1\n      pop\n      tag_93\n      swap2\n      swap1\n      jump\t// in(tag_94)\n    tag_93:\n      pop\n      swap1\n      jump\t// out\n    tag_94:\n      tag_95\n      swap2\n      swap1\n    tag_96:\n      dup1\n      dup3\n      gt\n      iszero\n      tag_97\n      jumpi\n      0x0\n      dup2\n      0x0\n      swap1\n      sstore\n      pop\n      0x1\n      add\n      jump(tag_96)\n    tag_97:\n      pop\n      swap1\n      jump\n    tag_95:\n      swap1\n      jump\t// out\n\n    auxdata: 0xa165627a7a7230582038235e894d3c66917cc5efc3f8312f20bec0847822dc69be9a254a1ecb5bee950029\n}\n",
				"bytecode": {
					"linkReferences": {},
					"object": "6080604052600060175534801561001557600080fd5b50610a8f806100256000396000f30060806040526004361061008e576000357c0100000000000000000000000000000000000000000000000000000000900463ffffffff1680631aa3a008146100935780632d8804b51461009d57806338af3eed146100a7578063598647f8146100fe5780636098170514610128578063952587d6146101a3578063a2fb1175146101ba578063bfb231d214610227575b600080fd5b61009b610268565b005b6100a56103e1565b005b3480156100b357600080fd5b506100bc610523565b604051808273ffffffffffffffffffffffffffffffffffffffff1673ffffffffffffffffffffffffffffffffffffffff16815260200191505060405180910390f35b6101266004803603810190808035906020019092919080359060200190929190505050610549565b005b34801561013457600080fd5b506101536004803603810190808035906020019092919050505061080a565b604051808481526020018381526020018273ffffffffffffffffffffffffffffffffffffffff1673ffffffffffffffffffffffffffffffffffffffff168152602001935050505060405180910390f35b3480156101af57600080fd5b506101b8610881565b005b3480156101c657600080fd5b506101e560048036038101908080359060200190929190505050610999565b604051808273ffffffffffffffffffffffffffffffffffffffff1673ffffffffffffffffffffffffffffffffffffffff16815260200191505060405180910390f35b34801561023357600080fd5b50610252600480360381019080803590602001909291905050506109ce565b6040518082815260200191505060405180910390f35b601754600160175460048110151561027c57fe5b600302016001018190555033600160175460048110151561029957fe5b6003020160020160006101000a81548173ffffffffffffffffffffffffffffffffffffffff021916908373ffffffffffffffffffffffffffffffffffffffff160217905550600560016017546004811015156102f157fe5b6003020160000181905550600160175460048110151561030d57fe5b600302016000803373ffffffffffffffffffffffffffffffffffffffff1673ffffffffffffffffffffffffffffffffffffffff16815260200190815260200160002060008201548160000155600182015481600101556002820160009054906101000a900473ffffffffffffffffffffffffffffffffffffffff168160020160006101000a81548173ffffffffffffffffffffffffffffffffffffffff021916908373ffffffffffffffffffffffffffffffffffffffff160217905550905050601760008154809291906001019190505550565b606033601660006101000a81548173ffffffffffffffffffffffffffffffffffffffff021916908373ffffffffffffffffffffffffffffffffffffffff16021790555060408051908101604052806000815260200182815250600d600060038110151561044a57fe5b600202016000820151816000015560208201518160010190805190602001906104749291906109f1565b5090505060408051908101604052806001815260200182815250600d600160038110151561049e57fe5b600202016000820151816000015560208201518160010190805190602001906104c89291906109f1565b5090505060408051908101604052806002815260200182815250600d60026003811015156104f257fe5b6002020160008201518160000155602082015181600101908051906020019061051c9291906109f1565b5090505050565b601660009054906101000a900473ffffffffffffffffffffffffffffffffffffffff1681565b6000806000836000803373ffffffffffffffffffffffffffffffffffffffff1673ffffffffffffffffffffffffffffffffffffffff1681526020019081526020016000206000015410806105de575060008060003373ffffffffffffffffffffffffffffffffffffffff1673ffffffffffffffffffffffffffffffffffffffff16815260200190815260200160002060000154145b156105e857600080fd5b60028511156105f657600080fd5b836000803373ffffffffffffffffffffffffffffffffffffffff1673ffffffffffffffffffffffffffffffffffffffff16815260200190815260200160002060000154036000803373ffffffffffffffffffffffffffffffffffffffff1673ffffffffffffffffffffffffffffffffffffffff168152602001908152602001600020600001819055506000803373ffffffffffffffffffffffffffffffffffffffff1673ffffffffffffffffffffffffffffffffffffffff168152602001908152602001600020600001549250826000803373ffffffffffffffffffffffffffffffffffffffff1673ffffffffffffffffffffffffffffffffffffffff168152602001908152602001600020600001819055508260016000803373ffffffffffffffffffffffffffffffffffffffff1673ffffffffffffffffffffffffffffffffffffffff1681526020019081526020016000206001015460048110151561075a57fe5b6003020160000181905550600d8560038110151561077457fe5b600202019150600090505b8381101561080357816001016000803373ffffffffffffffffffffffffffffffffffffffff1673ffffffffffffffffffffffffffffffffffffffff168152602001908152602001600020600101549080600181540180825580915050906001820390600052602060002001600090919290919091505550808060010191505061077f565b5050505050565b600080600060018460048110151561081e57fe5b600302016000015460018560048110151561083557fe5b600302016001015460018660048110151561084c57fe5b6003020160020160009054906101000a900473ffffffffffffffffffffffffffffffffffffffff169250925092509193909250565b600080600080600093505b600384101561099357600d846003811015156108a457fe5b600202019250600083600101805490501415156109865782600101805490508360010180549050438115156108d557fe5b048115156108df57fe5b06915082600101828154811015156108f357fe5b9060005260206000200154905060018160048110151561090f57fe5b6003020160020160009054906101000a900473ffffffffffffffffffffffffffffffffffffffff1660138560038110151561094657fe5b0160006101000a81548173ffffffffffffffffffffffffffffffffffffffff021916908373ffffffffffffffffffffffffffffffffffffffff1602179055505b838060010194505061088c565b50505050565b6013816003811015156109a857fe5b016000915054906101000a900473ffffffffffffffffffffffffffffffffffffffff1681565b600d816003811015156109dd57fe5b600202016000915090508060000154905081565b828054828255906000526020600020908101928215610a2d579160200282015b82811115610a2c578251825591602001919060010190610a11565b5b509050610a3a9190610a3e565b5090565b610a6091905b80821115610a5c576000816000905550600101610a44565b5090565b905600a165627a7a7230582038235e894d3c66917cc5efc3f8312f20bec0847822dc69be9a254a1ecb5bee950029",
					"opcodes": "PUSH1 0x80 PUSH1 0x40 MSTORE PUSH1 0x0 PUSH1 0x17 SSTORE CALLVALUE DUP1 ISZERO PUSH2 0x15 JUMPI PUSH1 0x0 DUP1 REVERT JUMPDEST POP PUSH2 0xA8F DUP1 PUSH2 0x25 PUSH1 0x0 CODECOPY PUSH1 0x0 RETURN STOP PUSH1 0x80 PUSH1 0x40 MSTORE PUSH1 0x4 CALLDATASIZE LT PUSH2 0x8E JUMPI PUSH1 0x0 CALLDATALOAD PUSH29 0x100000000000000000000000000000000000000000000000000000000 SWAP1 DIV PUSH4 0xFFFFFFFF AND DUP1 PUSH4 0x1AA3A008 EQ PUSH2 0x93 JUMPI DUP1 PUSH4 0x2D8804B5 EQ PUSH2 0x9D JUMPI DUP1 PUSH4 0x38AF3EED EQ PUSH2 0xA7 JUMPI DUP1 PUSH4 0x598647F8 EQ PUSH2 0xFE JUMPI DUP1 PUSH4 0x60981705 EQ PUSH2 0x128 JUMPI DUP1 PUSH4 0x952587D6 EQ PUSH2 0x1A3 JUMPI DUP1 PUSH4 0xA2FB1175 EQ PUSH2 0x1BA JUMPI DUP1 PUSH4 0xBFB231D2 EQ PUSH2 0x227 JUMPI JUMPDEST PUSH1 0x0 DUP1 REVERT JUMPDEST PUSH2 0x9B PUSH2 0x268 JUMP JUMPDEST STOP JUMPDEST PUSH2 0xA5 PUSH2 0x3E1 JUMP JUMPDEST STOP JUMPDEST CALLVALUE DUP1 ISZERO PUSH2 0xB3 JUMPI PUSH1 0x0 DUP1 REVERT JUMPDEST POP PUSH2 0xBC PUSH2 0x523 JUMP JUMPDEST PUSH1 0x40 MLOAD DUP1 DUP3 PUSH20 0xFFFFFFFFFFFFFFFFFFFFFFFFFFFFFFFFFFFFFFFF AND PUSH20 0xFFFFFFFFFFFFFFFFFFFFFFFFFFFFFFFFFFFFFFFF AND DUP2 MSTORE PUSH1 0x20 ADD SWAP2 POP POP PUSH1 0x40 MLOAD DUP1 SWAP2 SUB SWAP1 RETURN JUMPDEST PUSH2 0x126 PUSH1 0x4 DUP1 CALLDATASIZE SUB DUP2 ADD SWAP1 DUP1 DUP1 CALLDATALOAD SWAP1 PUSH1 0x20 ADD SWAP1 SWAP3 SWAP2 SWAP1 DUP1 CALLDATALOAD SWAP1 PUSH1 0x20 ADD SWAP1 SWAP3 SWAP2 SWAP1 POP POP POP PUSH2 0x549 JUMP JUMPDEST STOP JUMPDEST CALLVALUE DUP1 ISZERO PUSH2 0x134 JUMPI PUSH1 0x0 DUP1 REVERT JUMPDEST POP PUSH2 0x153 PUSH1 0x4 DUP1 CALLDATASIZE SUB DUP2 ADD SWAP1 DUP1 DUP1 CALLDATALOAD SWAP1 PUSH1 0x20 ADD SWAP1 SWAP3 SWAP2 SWAP1 POP POP POP PUSH2 0x80A JUMP JUMPDEST PUSH1 0x40 MLOAD DUP1 DUP5 DUP2 MSTORE PUSH1 0x20 ADD DUP4 DUP2 MSTORE PUSH1 0x20 ADD DUP3 PUSH20 0xFFFFFFFFFFFFFFFFFFFFFFFFFFFFFFFFFFFFFFFF AND PUSH20 0xFFFFFFFFFFFFFFFFFFFFFFFFFFFFFFFFFFFFFFFF AND DUP2 MSTORE PUSH1 0x20 ADD SWAP4 POP POP POP POP PUSH1 0x40 MLOAD DUP1 SWAP2 SUB SWAP1 RETURN JUMPDEST CALLVALUE DUP1 ISZERO PUSH2 0x1AF JUMPI PUSH1 0x0 DUP1 REVERT JUMPDEST POP PUSH2 0x1B8 PUSH2 0x881 JUMP JUMPDEST STOP JUMPDEST CALLVALUE DUP1 ISZERO PUSH2 0x1C6 JUMPI PUSH1 0x0 DUP1 REVERT JUMPDEST POP PUSH2 0x1E5 PUSH1 0x4 DUP1 CALLDATASIZE SUB DUP2 ADD SWAP1 DUP1 DUP1 CALLDATALOAD SWAP1 PUSH1 0x20 ADD SWAP1 SWAP3 SWAP2 SWAP1 POP POP POP PUSH2 0x999 JUMP JUMPDEST PUSH1 0x40 MLOAD DUP1 DUP3 PUSH20 0xFFFFFFFFFFFFFFFFFFFFFFFFFFFFFFFFFFFFFFFF AND PUSH20 0xFFFFFFFFFFFFFFFFFFFFFFFFFFFFFFFFFFFFFFFF AND DUP2 MSTORE PUSH1 0x20 ADD SWAP2 POP POP PUSH1 0x40 MLOAD DUP1 SWAP2 SUB SWAP1 RETURN JUMPDEST CALLVALUE DUP1 ISZERO PUSH2 0x233 JUMPI PUSH1 0x0 DUP1 REVERT JUMPDEST POP PUSH2 0x252 PUSH1 0x4 DUP1 CALLDATASIZE SUB DUP2 ADD SWAP1 DUP1 DUP1 CALLDATALOAD SWAP1 PUSH1 0x20 ADD SWAP1 SWAP3 SWAP2 SWAP1 POP POP POP PUSH2 0x9CE JUMP JUMPDEST PUSH1 0x40 MLOAD DUP1 DUP3 DUP2 MSTORE PUSH1 0x20 ADD SWAP2 POP POP PUSH1 0x40 MLOAD DUP1 SWAP2 SUB SWAP1 RETURN JUMPDEST PUSH1 0x17 SLOAD PUSH1 0x1 PUSH1 0x17 SLOAD PUSH1 0x4 DUP2 LT ISZERO ISZERO PUSH2 0x27C JUMPI INVALID JUMPDEST PUSH1 0x3 MUL ADD PUSH1 0x1 ADD DUP2 SWAP1 SSTORE POP CALLER PUSH1 0x1 PUSH1 0x17 SLOAD PUSH1 0x4 DUP2 LT ISZERO ISZERO PUSH2 0x299 JUMPI INVALID JUMPDEST PUSH1 0x3 MUL ADD PUSH1 0x2 ADD PUSH1 0x0 PUSH2 0x100 EXP DUP2 SLOAD DUP2 PUSH20 0xFFFFFFFFFFFFFFFFFFFFFFFFFFFFFFFFFFFFFFFF MUL NOT AND SWAP1 DUP4 PUSH20 0xFFFFFFFFFFFFFFFFFFFFFFFFFFFFFFFFFFFFFFFF AND MUL OR SWAP1 SSTORE POP PUSH1 0x5 PUSH1 0x1 PUSH1 0x17 SLOAD PUSH1 0x4 DUP2 LT ISZERO ISZERO PUSH2 0x2F1 JUMPI INVALID JUMPDEST PUSH1 0x3 MUL ADD PUSH1 0x0 ADD DUP2 SWAP1 SSTORE POP PUSH1 0x1 PUSH1 0x17 SLOAD PUSH1 0x4 DUP2 LT ISZERO ISZERO PUSH2 0x30D JUMPI INVALID JUMPDEST PUSH1 0x3 MUL ADD PUSH1 0x0 DUP1 CALLER PUSH20 0xFFFFFFFFFFFFFFFFFFFFFFFFFFFFFFFFFFFFFFFF AND PUSH20 0xFFFFFFFFFFFFFFFFFFFFFFFFFFFFFFFFFFFFFFFF AND DUP2 MSTORE PUSH1 0x20 ADD SWAP1 DUP2 MSTORE PUSH1 0x20 ADD PUSH1 0x0 KECCAK256 PUSH1 0x0 DUP3 ADD SLOAD DUP2 PUSH1 0x0 ADD SSTORE PUSH1 0x1 DUP3 ADD SLOAD DUP2 PUSH1 0x1 ADD SSTORE PUSH1 0x2 DUP3 ADD PUSH1 0x0 SWAP1 SLOAD SWAP1 PUSH2 0x100 EXP SWAP1 DIV PUSH20 0xFFFFFFFFFFFFFFFFFFFFFFFFFFFFFFFFFFFFFFFF AND DUP2 PUSH1 0x2 ADD PUSH1 0x0 PUSH2 0x100 EXP DUP2 SLOAD DUP2 PUSH20 0xFFFFFFFFFFFFFFFFFFFFFFFFFFFFFFFFFFFFFFFF MUL NOT AND SWAP1 DUP4 PUSH20 0xFFFFFFFFFFFFFFFFFFFFFFFFFFFFFFFFFFFFFFFF AND MUL OR SWAP1 SSTORE POP SWAP1 POP POP PUSH1 0x17 PUSH1 0x0 DUP2 SLOAD DUP1 SWAP3 SWAP2 SWAP1 PUSH1 0x1 ADD SWAP2 SWAP1 POP SSTORE POP JUMP JUMPDEST PUSH1 0x60 CALLER PUSH1 0x16 PUSH1 0x0 PUSH2 0x100 EXP DUP2 SLOAD DUP2 PUSH20 0xFFFFFFFFFFFFFFFFFFFFFFFFFFFFFFFFFFFFFFFF MUL NOT AND SWAP1 DUP4 PUSH20 0xFFFFFFFFFFFFFFFFFFFFFFFFFFFFFFFFFFFFFFFF AND MUL OR SWAP1 SSTORE POP PUSH1 0x40 DUP1 MLOAD SWAP1 DUP2 ADD PUSH1 0x40 MSTORE DUP1 PUSH1 0x0 DUP2 MSTORE PUSH1 0x20 ADD DUP3 DUP2 MSTORE POP PUSH1 0xD PUSH1 0x0 PUSH1 0x3 DUP2 LT ISZERO ISZERO PUSH2 0x44A JUMPI INVALID JUMPDEST PUSH1 0x2 MUL ADD PUSH1 0x0 DUP3 ADD MLOAD DUP2 PUSH1 0x0 ADD SSTORE PUSH1 0x20 DUP3 ADD MLOAD DUP2 PUSH1 0x1 ADD SWAP1 DUP1 MLOAD SWAP1 PUSH1 0x20 ADD SWAP1 PUSH2 0x474 SWAP3 SWAP2 SWAP1 PUSH2 0x9F1 JUMP JUMPDEST POP SWAP1 POP POP PUSH1 0x40 DUP1 MLOAD SWAP1 DUP2 ADD PUSH1 0x40 MSTORE DUP1 PUSH1 0x1 DUP2 MSTORE PUSH1 0x20 ADD DUP3 DUP2 MSTORE POP PUSH1 0xD PUSH1 0x1 PUSH1 0x3 DUP2 LT ISZERO ISZERO PUSH2 0x49E JUMPI INVALID JUMPDEST PUSH1 0x2 MUL ADD PUSH1 0x0 DUP3 ADD MLOAD DUP2 PUSH1 0x0 ADD SSTORE PUSH1 0x20 DUP3 ADD MLOAD DUP2 PUSH1 0x1 ADD SWAP1 DUP1 MLOAD SWAP1 PUSH1 0x20 ADD SWAP1 PUSH2 0x4C8 SWAP3 SWAP2 SWAP1 PUSH2 0x9F1 JUMP JUMPDEST POP SWAP1 POP POP PUSH1 0x40 DUP1 MLOAD SWAP1 DUP2 ADD PUSH1 0x40 MSTORE DUP1 PUSH1 0x2 DUP2 MSTORE PUSH1 0x20 ADD DUP3 DUP2 MSTORE POP PUSH1 0xD PUSH1 0x2 PUSH1 0x3 DUP2 LT ISZERO ISZERO PUSH2 0x4F2 JUMPI INVALID JUMPDEST PUSH1 0x2 MUL ADD PUSH1 0x0 DUP3 ADD MLOAD DUP2 PUSH1 0x0 ADD SSTORE PUSH1 0x20 DUP3 ADD MLOAD DUP2 PUSH1 0x1 ADD SWAP1 DUP1 MLOAD SWAP1 PUSH1 0x20 ADD SWAP1 PUSH2 0x51C SWAP3 SWAP2 SWAP1 PUSH2 0x9F1 JUMP JUMPDEST POP SWAP1 POP POP POP JUMP JUMPDEST PUSH1 0x16 PUSH1 0x0 SWAP1 SLOAD SWAP1 PUSH2 0x100 EXP SWAP1 DIV PUSH20 0xFFFFFFFFFFFFFFFFFFFFFFFFFFFFFFFFFFFFFFFF AND DUP2 JUMP JUMPDEST PUSH1 0x0 DUP1 PUSH1 0x0 DUP4 PUSH1 0x0 DUP1 CALLER PUSH20 0xFFFFFFFFFFFFFFFFFFFFFFFFFFFFFFFFFFFFFFFF AND PUSH20 0xFFFFFFFFFFFFFFFFFFFFFFFFFFFFFFFFFFFFFFFF AND DUP2 MSTORE PUSH1 0x20 ADD SWAP1 DUP2 MSTORE PUSH1 0x20 ADD PUSH1 0x0 KECCAK256 PUSH1 0x0 ADD SLOAD LT DUP1 PUSH2 0x5DE JUMPI POP PUSH1 0x0 DUP1 PUSH1 0x0 CALLER PUSH20 0xFFFFFFFFFFFFFFFFFFFFFFFFFFFFFFFFFFFFFFFF AND PUSH20 0xFFFFFFFFFFFFFFFFFFFFFFFFFFFFFFFFFFFFFFFF AND DUP2 MSTORE PUSH1 0x20 ADD SWAP1 DUP2 MSTORE PUSH1 0x20 ADD PUSH1 0x0 KECCAK256 PUSH1 0x0 ADD SLOAD EQ JUMPDEST ISZERO PUSH2 0x5E8 JUMPI PUSH1 0x0 DUP1 REVERT JUMPDEST PUSH1 0x2 DUP6 GT ISZERO PUSH2 0x5F6 JUMPI PUSH1 0x0 DUP1 REVERT JUMPDEST DUP4 PUSH1 0x0 DUP1 CALLER PUSH20 0xFFFFFFFFFFFFFFFFFFFFFFFFFFFFFFFFFFFFFFFF AND PUSH20 0xFFFFFFFFFFFFFFFFFFFFFFFFFFFFFFFFFFFFFFFF AND DUP2 MSTORE PUSH1 0x20 ADD SWAP1 DUP2 MSTORE PUSH1 0x20 ADD PUSH1 0x0 KECCAK256 PUSH1 0x0 ADD SLOAD SUB PUSH1 0x0 DUP1 CALLER PUSH20 0xFFFFFFFFFFFFFFFFFFFFFFFFFFFFFFFFFFFFFFFF AND PUSH20 0xFFFFFFFFFFFFFFFFFFFFFFFFFFFFFFFFFFFFFFFF AND DUP2 MSTORE PUSH1 0x20 ADD SWAP1 DUP2 MSTORE PUSH1 0x20 ADD PUSH1 0x0 KECCAK256 PUSH1 0x0 ADD DUP2 SWAP1 SSTORE POP PUSH1 0x0 DUP1 CALLER PUSH20 0xFFFFFFFFFFFFFFFFFFFFFFFFFFFFFFFFFFFFFFFF AND PUSH20 0xFFFFFFFFFFFFFFFFFFFFFFFFFFFFFFFFFFFFFFFF AND DUP2 MSTORE PUSH1 0x20 ADD SWAP1 DUP2 MSTORE PUSH1 0x20 ADD PUSH1 0x0 KECCAK256 PUSH1 0x0 ADD SLOAD SWAP3 POP DUP3 PUSH1 0x0 DUP1 CALLER PUSH20 0xFFFFFFFFFFFFFFFFFFFFFFFFFFFFFFFFFFFFFFFF AND PUSH20 0xFFFFFFFFFFFFFFFFFFFFFFFFFFFFFFFFFFFFFFFF AND DUP2 MSTORE PUSH1 0x20 ADD SWAP1 DUP2 MSTORE PUSH1 0x20 ADD PUSH1 0x0 KECCAK256 PUSH1 0x0 ADD DUP2 SWAP1 SSTORE POP DUP3 PUSH1 0x1 PUSH1 0x0 DUP1 CALLER PUSH20 0xFFFFFFFFFFFFFFFFFFFFFFFFFFFFFFFFFFFFFFFF AND PUSH20 0xFFFFFFFFFFFFFFFFFFFFFFFFFFFFFFFFFFFFFFFF AND DUP2 MSTORE PUSH1 0x20 ADD SWAP1 DUP2 MSTORE PUSH1 0x20 ADD PUSH1 0x0 KECCAK256 PUSH1 0x1 ADD SLOAD PUSH1 0x4 DUP2 LT ISZERO ISZERO PUSH2 0x75A JUMPI INVALID JUMPDEST PUSH1 0x3 MUL ADD PUSH1 0x0 ADD DUP2 SWAP1 SSTORE POP PUSH1 0xD DUP6 PUSH1 0x3 DUP2 LT ISZERO ISZERO PUSH2 0x774 JUMPI INVALID JUMPDEST PUSH1 0x2 MUL ADD SWAP2 POP PUSH1 0x0 SWAP1 POP JUMPDEST DUP4 DUP2 LT ISZERO PUSH2 0x803 JUMPI DUP2 PUSH1 0x1 ADD PUSH1 0x0 DUP1 CALLER PUSH20 0xFFFFFFFFFFFFFFFFFFFFFFFFFFFFFFFFFFFFFFFF AND PUSH20 0xFFFFFFFFFFFFFFFFFFFFFFFFFFFFFFFFFFFFFFFF AND DUP2 MSTORE PUSH1 0x20 ADD SWAP1 DUP2 MSTORE PUSH1 0x20 ADD PUSH1 0x0 KECCAK256 PUSH1 0x1 ADD SLOAD SWAP1 DUP1 PUSH1 0x1 DUP2 SLOAD ADD DUP1 DUP3 SSTORE DUP1 SWAP2 POP POP SWAP1 PUSH1 0x1 DUP3 SUB SWAP1 PUSH1 0x0 MSTORE PUSH1 0x20 PUSH1 0x0 KECCAK256 ADD PUSH1 0x0 SWAP1 SWAP2 SWAP3 SWAP1 SWAP2 SWAP1 SWAP2 POP SSTORE POP DUP1 DUP1 PUSH1 0x1 ADD SWAP2 POP POP PUSH2 0x77F JUMP JUMPDEST POP POP POP POP POP JUMP JUMPDEST PUSH1 0x0 DUP1 PUSH1 0x0 PUSH1 0x1 DUP5 PUSH1 0x4 DUP2 LT ISZERO ISZERO PUSH2 0x81E JUMPI INVALID JUMPDEST PUSH1 0x3 MUL ADD PUSH1 0x0 ADD SLOAD PUSH1 0x1 DUP6 PUSH1 0x4 DUP2 LT ISZERO ISZERO PUSH2 0x835 JUMPI INVALID JUMPDEST PUSH1 0x3 MUL ADD PUSH1 0x1 ADD SLOAD PUSH1 0x1 DUP7 PUSH1 0x4 DUP2 LT ISZERO ISZERO PUSH2 0x84C JUMPI INVALID JUMPDEST PUSH1 0x3 MUL ADD PUSH1 0x2 ADD PUSH1 0x0 SWAP1 SLOAD SWAP1 PUSH2 0x100 EXP SWAP1 DIV PUSH20 0xFFFFFFFFFFFFFFFFFFFFFFFFFFFFFFFFFFFFFFFF AND SWAP3 POP SWAP3 POP SWAP3 POP SWAP2 SWAP4 SWAP1 SWAP3 POP JUMP JUMPDEST PUSH1 0x0 DUP1 PUSH1 0x0 DUP1 PUSH1 0x0 SWAP4 POP JUMPDEST PUSH1 0x3 DUP5 LT ISZERO PUSH2 0x993 JUMPI PUSH1 0xD DUP5 PUSH1 0x3 DUP2 LT ISZERO ISZERO PUSH2 0x8A4 JUMPI INVALID JUMPDEST PUSH1 0x2 MUL ADD SWAP3 POP PUSH1 0x0 DUP4 PUSH1 0x1 ADD DUP1 SLOAD SWAP1 POP EQ ISZERO ISZERO PUSH2 0x986 JUMPI DUP3 PUSH1 0x1 ADD DUP1 SLOAD SWAP1 POP DUP4 PUSH1 0x1 ADD DUP1 SLOAD SWAP1 POP NUMBER DUP2 ISZERO ISZERO PUSH2 0x8D5 JUMPI INVALID JUMPDEST DIV DUP2 ISZERO ISZERO PUSH2 0x8DF JUMPI INVALID JUMPDEST MOD SWAP2 POP DUP3 PUSH1 0x1 ADD DUP3 DUP2 SLOAD DUP2 LT ISZERO ISZERO PUSH2 0x8F3 JUMPI INVALID JUMPDEST SWAP1 PUSH1 0x0 MSTORE PUSH1 0x20 PUSH1 0x0 KECCAK256 ADD SLOAD SWAP1 POP PUSH1 0x1 DUP2 PUSH1 0x4 DUP2 LT ISZERO ISZERO PUSH2 0x90F JUMPI INVALID JUMPDEST PUSH1 0x3 MUL ADD PUSH1 0x2 ADD PUSH1 0x0 SWAP1 SLOAD SWAP1 PUSH2 0x100 EXP SWAP1 DIV PUSH20 0xFFFFFFFFFFFFFFFFFFFFFFFFFFFFFFFFFFFFFFFF AND PUSH1 0x13 DUP6 PUSH1 0x3 DUP2 LT ISZERO ISZERO PUSH2 0x946 JUMPI INVALID JUMPDEST ADD PUSH1 0x0 PUSH2 0x100 EXP DUP2 SLOAD DUP2 PUSH20 0xFFFFFFFFFFFFFFFFFFFFFFFFFFFFFFFFFFFFFFFF MUL NOT AND SWAP1 DUP4 PUSH20 0xFFFFFFFFFFFFFFFFFFFFFFFFFFFFFFFFFFFFFFFF AND MUL OR SWAP1 SSTORE POP JUMPDEST DUP4 DUP1 PUSH1 0x1 ADD SWAP5 POP POP PUSH2 0x88C JUMP JUMPDEST POP POP POP POP JUMP JUMPDEST PUSH1 0x13 DUP2 PUSH1 0x3 DUP2 LT ISZERO ISZERO PUSH2 0x9A8 JUMPI INVALID JUMPDEST ADD PUSH1 0x0 SWAP2 POP SLOAD SWAP1 PUSH2 0x100 EXP SWAP1 DIV PUSH20 0xFFFFFFFFFFFFFFFFFFFFFFFFFFFFFFFFFFFFFFFF AND DUP2 JUMP JUMPDEST PUSH1 0xD DUP2 PUSH1 0x3 DUP2 LT ISZERO ISZERO PUSH2 0x9DD JUMPI INVALID JUMPDEST PUSH1 0x2 MUL ADD PUSH1 0x0 SWAP2 POP SWAP1 POP DUP1 PUSH1 0x0 ADD SLOAD SWAP1 POP DUP2 JUMP JUMPDEST DUP3 DUP1 SLOAD DUP3 DUP3 SSTORE SWAP1 PUSH1 0x0 MSTORE PUSH1 0x20 PUSH1 0x0 KECCAK256 SWAP1 DUP2 ADD SWAP3 DUP3 ISZERO PUSH2 0xA2D JUMPI SWAP2 PUSH1 0x20 MUL DUP3 ADD JUMPDEST DUP3 DUP2 GT ISZERO PUSH2 0xA2C JUMPI DUP3 MLOAD DUP3 SSTORE SWAP2 PUSH1 0x20 ADD SWAP2 SWAP1 PUSH1 0x1 ADD SWAP1 PUSH2 0xA11 JUMP JUMPDEST JUMPDEST POP SWAP1 POP PUSH2 0xA3A SWAP2 SWAP1 PUSH2 0xA3E JUMP JUMPDEST POP SWAP1 JUMP JUMPDEST PUSH2 0xA60 SWAP2 SWAP1 JUMPDEST DUP1 DUP3 GT ISZERO PUSH2 0xA5C JUMPI PUSH1 0x0 DUP2 PUSH1 0x0 SWAP1 SSTORE POP PUSH1 0x1 ADD PUSH2 0xA44 JUMP JUMPDEST POP SWAP1 JUMP JUMPDEST SWAP1 JUMP STOP LOG1 PUSH6 0x627A7A723058 KECCAK256 CODESIZE 0x23 0x5e DUP10 0x4d EXTCODECOPY PUSH7 0x917CC5EFC3F831 0x2f KECCAK256 0xbe 0xc0 DUP5 PUSH25 0x22DC69BE9A254A1ECB5BEE9500290000000000000000000000 "
				},
				"gasEstimates": {
					"creation": {
						"codeDepositCost": "540600",
						"executionCost": "5581",
						"totalCost": "546181"
					},
					"external": {
						"AuctionConstructor()": "infinite",
						"beneficiary()": "486",
						"bid(uint256,uint256)": "infinite",
						"getPersonDetails(uint256)": "1214",
						"items(uint256)": "674",
						"register()": "142883",
						"revealWinners()": "infinite",
						"winners(uint256)": "667"
					}
				},
				"methodIdentifiers": {
					"AuctionConstructor()": "2d8804b5",
					"beneficiary()": "38af3eed",
					"bid(uint256,uint256)": "598647f8",
					"getPersonDetails(uint256)": "60981705",
					"items(uint256)": "bfb231d2",
					"register()": "1aa3a008",
					"revealWinners()": "952587d6",
					"winners(uint256)": "a2fb1175"
				}
			},
			"userdoc": {
				"methods": {}
			}
		}
	}
}