{
	"data": {
		"bytecode": {
			"linkReferences": {},
			"object": "6080604052600060175534801561001557600080fd5b50610a8f806100256000396000f30060806040526004361061008e576000357c0100000000000000000000000000000000000000000000000000000000900463ffffffff1680631aa3a008146100935780632d8804b51461009d57806338af3eed146100a7578063598647f8146100fe5780636098170514610128578063952587d6146101a3578063a2fb1175146101ba578063bfb231d214610227575b600080fd5b61009b610268565b005b6100a56103e1565b005b3480156100b357600080fd5b506100bc610523565b604051808273ffffffffffffffffffffffffffffffffffffffff1673ffffffffffffffffffffffffffffffffffffffff16815260200191505060405180910390f35b6101266004803603810190808035906020019092919080359060200190929190505050610549565b005b34801561013457600080fd5b506101536004803603810190808035906020019092919050505061080a565b604051808481526020018381526020018273ffffffffffffffffffffffffffffffffffffffff1673ffffffffffffffffffffffffffffffffffffffff168152602001935050505060405180910390f35b3480156101af57600080fd5b506101b8610881565b005b3480156101c657600080fd5b506101e560048036038101908080359060200190929190505050610999565b604051808273ffffffffffffffffffffffffffffffffffffffff1673ffffffffffffffffffffffffffffffffffffffff16815260200191505060405180910390f35b34801561023357600080fd5b50610252600480360381019080803590602001909291905050506109ce565b6040518082815260200191505060405180910390f35b601754600160175460048110151561027c57fe5b600302016001018190555033600160175460048110151561029957fe5b6003020160020160006101000a81548173ffffffffffffffffffffffffffffffffffffffff021916908373ffffffffffffffffffffffffffffffffffffffff160217905550600560016017546004811015156102f157fe5b6003020160000181905550600160175460048110151561030d57fe5b600302016000803373ffffffffffffffffffffffffffffffffffffffff1673ffffffffffffffffffffffffffffffffffffffff16815260200190815260200160002060008201548160000155600182015481600101556002820160009054906101000a900473ffffffffffffffffffffffffffffffffffffffff168160020160006101000a81548173ffffffffffffffffffffffffffffffffffffffff021916908373ffffffffffffffffffffffffffffffffffffffff160217905550905050601760008154809291906001019190505550565b606033601660006101000a81548173ffffffffffffffffffffffffffffffffffffffff021916908373ffffffffffffffffffffffffffffffffffffffff16021790555060408051908101604052806000815260200182815250600d600060038110151561044a57fe5b600202016000820151816000015560208201518160010190805190602001906104749291906109f1565b5090505060408051908101604052806001815260200182815250600d600160038110151561049e57fe5b600202016000820151816000015560208201518160010190805190602001906104c89291906109f1565b5090505060408051908101604052806002815260200182815250600d60026003811015156104f257fe5b6002020160008201518160000155602082015181600101908051906020019061051c9291906109f1565b5090505050565b601660009054906101000a900473ffffffffffffffffffffffffffffffffffffffff1681565b6000806000836000803373ffffffffffffffffffffffffffffffffffffffff1673ffffffffffffffffffffffffffffffffffffffff1681526020019081526020016000206000015410806105de575060008060003373ffffffffffffffffffffffffffffffffffffffff1673ffffffffffffffffffffffffffffffffffffffff16815260200190815260200160002060000154145b156105e857600080fd5b60028511156105f657600080fd5b836000803373ffffffffffffffffffffffffffffffffffffffff1673ffffffffffffffffffffffffffffffffffffffff16815260200190815260200160002060000154036000803373ffffffffffffffffffffffffffffffffffffffff1673ffffffffffffffffffffffffffffffffffffffff168152602001908152602001600020600001819055506000803373ffffffffffffffffffffffffffffffffffffffff1673ffffffffffffffffffffffffffffffffffffffff168152602001908152602001600020600001549250826000803373ffffffffffffffffffffffffffffffffffffffff1673ffffffffffffffffffffffffffffffffffffffff168152602001908152602001600020600001819055508260016000803373ffffffffffffffffffffffffffffffffffffffff1673ffffffffffffffffffffffffffffffffffffffff1681526020019081526020016000206001015460048110151561075a57fe5b6003020160000181905550600d8560038110151561077457fe5b600202019150600090505b8381101561080357816001016000803373ffffffffffffffffffffffffffffffffffffffff1673ffffffffffffffffffffffffffffffffffffffff168152602001908152602001600020600101549080600181540180825580915050906001820390600052602060002001600090919290919091505550808060010191505061077f565b5050505050565b600080600060018460048110151561081e57fe5b600302016000015460018560048110151561083557fe5b600302016001015460018660048110151561084c57fe5b6003020160020160009054906101000a900473ffffffffffffffffffffffffffffffffffffffff169250925092509193909250565b600080600080600093505b600384101561099357600d846003811015156108a457fe5b600202019250600083600101805490501415156109865782600101805490508360010180549050438115156108d557fe5b048115156108df57fe5b06915082600101828154811015156108f357fe5b9060005260206000200154905060018160048110151561090f57fe5b6003020160020160009054906101000a900473ffffffffffffffffffffffffffffffffffffffff1660138560038110151561094657fe5b0160006101000a81548173ffffffffffffffffffffffffffffffffffffffff021916908373ffffffffffffffffffffffffffffffffffffffff1602179055505b838060010194505061088c565b50505050565b6013816003811015156109a857fe5b016000915054906101000a900473ffffffffffffffffffffffffffffffffffffffff1681565b600d816003811015156109dd57fe5b600202016000915090508060000154905081565b828054828255906000526020600020908101928215610a2d579160200282015b82811115610a2c578251825591602001919060010190610a11565b5b509050610a3a9190610a3e565b5090565b610a6091905b80821115610a5c576000816000905550600101610a44565b5090565b905600a165627a7a7230582038235e894d3c66917cc5efc3f8312f20bec0847822dc69be9a254a1ecb5bee950029",
			"opcodes": "PUSH1 0x80 PUSH1 0x40 MSTORE PUSH1 0x0 PUSH1 0x17 SSTORE CALLVALUE DUP1 ISZERO PUSH2 0x15 JUMPI PUSH1 0x0 DUP1 REVERT JUMPDEST POP PUSH2 0xA8F DUP1 PUSH2 0x25 PUSH1 0x0 CODECOPY PUSH1 0x0 RETURN STOP PUSH1 0x80 PUSH1 0x40 MSTORE PUSH1 0x4 CALLDATASIZE LT PUSH2 0x8E JUMPI PUSH1 0x0 CALLDATALOAD PUSH29 0x100000000000000000000000000000000000000000000000000000000 SWAP1 DIV PUSH4 0xFFFFFFFF AND DUP1 PUSH4 0x1AA3A008 EQ PUSH2 0x93 JUMPI DUP1 PUSH4 0x2D8804B5 EQ PUSH2 0x9D JUMPI DUP1 PUSH4 0x38AF3EED EQ PUSH2 0xA7 JUMPI DUP1 PUSH4 0x598647F8 EQ PUSH2 0xFE JUMPI DUP1 PUSH4 0x60981705 EQ PUSH2 0x128 JUMPI DUP1 PUSH4 0x952587D6 EQ PUSH2 0x1A3 JUMPI DUP1 PUSH4 0xA2FB1175 EQ PUSH2 0x1BA JUMPI DUP1 PUSH4 0xBFB231D2 EQ PUSH2 0x227 JUMPI JUMPDEST PUSH1 0x0 DUP1 REVERT JUMPDEST PUSH2 0x9B PUSH2 0x268 JUMP JUMPDEST STOP JUMPDEST PUSH2 0xA5 PUSH2 0x3E1 JUMP JUMPDEST STOP JUMPDEST CALLVALUE DUP1 ISZERO PUSH2 0xB3 JUMPI PUSH1 0x0 DUP1 REVERT JUMPDEST POP PUSH2 0xBC PUSH2 0x523 JUMP JUMPDEST PUSH1 0x40 MLOAD DUP1 DUP3 PUSH20 0xFFFFFFFFFFFFFFFFFFFFFFFFFFFFFFFFFFFFFFFF AND PUSH20 0xFFFFFFFFFFFFFFFFFFFFFFFFFFFFFFFFFFFFFFFF AND DUP2 MSTORE PUSH1 0x20 ADD SWAP2 POP POP PUSH1 0x40 MLOAD DUP1 SWAP2 SUB SWAP1 RETURN JUMPDEST PUSH2 0x126 PUSH1 0x4 DUP1 CALLDATASIZE SUB DUP2 ADD SWAP1 DUP1 DUP1 CALLDATALOAD SWAP1 PUSH1 0x20 ADD SWAP1 SWAP3 SWAP2 SWAP1 DUP1 CALLDATALOAD SWAP1 PUSH1 0x20 ADD SWAP1 SWAP3 SWAP2 SWAP1 POP POP POP PUSH2 0x549 JUMP JUMPDEST STOP JUMPDEST CALLVALUE DUP1 ISZERO PUSH2 0x134 JUMPI PUSH1 0x0 DUP1 REVERT JUMPDEST POP PUSH2 0x153 PUSH1 0x4 DUP1 CALLDATASIZE SUB DUP2 ADD SWAP1 DUP1 DUP1 CALLDATALOAD SWAP1 PUSH1 0x20 ADD SWAP1 SWAP3 SWAP2 SWAP1 POP POP POP PUSH2 0x80A JUMP JUMPDEST PUSH1 0x40 MLOAD DUP1 DUP5 DUP2 MSTORE PUSH1 0x20 ADD DUP4 DUP2 MSTORE PUSH1 0x20 ADD DUP3 PUSH20 0xFFFFFFFFFFFFFFFFFFFFFFFFFFFFFFFFFFFFFFFF AND PUSH20 0xFFFFFFFFFFFFFFFFFFFFFFFFFFFFFFFFFFFFFFFF AND DUP2 MSTORE PUSH1 0x20 ADD SWAP4 POP POP POP POP PUSH1 0x40 MLOAD DUP1 SWAP2 SUB SWAP1 RETURN JUMPDEST CALLVALUE DUP1 ISZERO PUSH2 0x1AF JUMPI PUSH1 0x0 DUP1 REVERT JUMPDEST POP PUSH2 0x1B8 PUSH2 0x881 JUMP JUMPDEST STOP JUMPDEST CALLVALUE DUP1 ISZERO PUSH2 0x1C6 JUMPI PUSH1 0x0 DUP1 REVERT JUMPDEST POP PUSH2 0x1E5 PUSH1 0x4 DUP1 CALLDATASIZE SUB DUP2 ADD SWAP1 DUP1 DUP1 CALLDATALOAD SWAP1 PUSH1 0x20 ADD SWAP1 SWAP3 SWAP2 SWAP1 POP POP POP PUSH2 0x999 JUMP JUMPDEST PUSH1 0x40 MLOAD DUP1 DUP3 PUSH20 0xFFFFFFFFFFFFFFFFFFFFFFFFFFFFFFFFFFFFFFFF AND PUSH20 0xFFFFFFFFFFFFFFFFFFFFFFFFFFFFFFFFFFFFFFFF AND DUP2 MSTORE PUSH1 0x20 ADD SWAP2 POP POP PUSH1 0x40 MLOAD DUP1 SWAP2 SUB SWAP1 RETURN JUMPDEST CALLVALUE DUP1 ISZERO PUSH2 0x233 JUMPI PUSH1 0x0 DUP1 REVERT JUMPDEST POP PUSH2 0x252 PUSH1 0x4 DUP1 CALLDATASIZE SUB DUP2 ADD SWAP1 DUP1 DUP1 CALLDATALOAD SWAP1 PUSH1 0x20 ADD SWAP1 SWAP3 SWAP2 SWAP1 POP POP POP PUSH2 0x9CE JUMP JUMPDEST PUSH1 0x40 MLOAD DUP1 DUP3 DUP2 MSTORE PUSH1 0x20 ADD SWAP2 POP POP PUSH1 0x40 MLOAD DUP1 SWAP2 SUB SWAP1 RETURN JUMPDEST PUSH1 0x17 SLOAD PUSH1 0x1 PUSH1 0x17 SLOAD PUSH1 0x4 DUP2 LT ISZERO ISZERO PUSH2 0x27C JUMPI INVALID JUMPDEST PUSH1 0x3 MUL ADD PUSH1 0x1 ADD DUP2 SWAP1 SSTORE POP CALLER PUSH1 0x1 PUSH1 0x17 SLOAD PUSH1 0x4 DUP2 LT ISZERO ISZERO PUSH2 0x299 JUMPI INVALID JUMPDEST PUSH1 0x3 MUL ADD PUSH1 0x2 ADD PUSH1 0x0 PUSH2 0x100 EXP DUP2 SLOAD DUP2 PUSH20 0xFFFFFFFFFFFFFFFFFFFFFFFFFFFFFFFFFFFFFFFF MUL NOT AND SWAP1 DUP4 PUSH20 0xFFFFFFFFFFFFFFFFFFFFFFFFFFFFFFFFFFFFFFFF AND MUL OR SWAP1 SSTORE POP PUSH1 0x5 PUSH1 0x1 PUSH1 0x17 SLOAD PUSH1 0x4 DUP2 LT ISZERO ISZERO PUSH2 0x2F1 JUMPI INVALID JUMPDEST PUSH1 0x3 MUL ADD PUSH1 0x0 ADD DUP2 SWAP1 SSTORE POP PUSH1 0x1 PUSH1 0x17 SLOAD PUSH1 0x4 DUP2 LT ISZERO ISZERO PUSH2 0x30D JUMPI INVALID JUMPDEST PUSH1 0x3 MUL ADD PUSH1 0x0 DUP1 CALLER PUSH20 0xFFFFFFFFFFFFFFFFFFFFFFFFFFFFFFFFFFFFFFFF AND PUSH20 0xFFFFFFFFFFFFFFFFFFFFFFFFFFFFFFFFFFFFFFFF AND DUP2 MSTORE PUSH1 0x20 ADD SWAP1 DUP2 MSTORE PUSH1 0x20 ADD PUSH1 0x0 KECCAK256 PUSH1 0x0 DUP3 ADD SLOAD DUP2 PUSH1 0x0 ADD SSTORE PUSH1 0x1 DUP3 ADD SLOAD DUP2 PUSH1 0x1 ADD SSTORE PUSH1 0x2 DUP3 ADD PUSH1 0x0 SWAP1 SLOAD SWAP1 PUSH2 0x100 EXP SWAP1 DIV PUSH20 0xFFFFFFFFFFFFFFFFFFFFFFFFFFFFFFFFFFFFFFFF AND DUP2 PUSH1 0x2 ADD PUSH1 0x0 PUSH2 0x100 EXP DUP2 SLOAD DUP2 PUSH20 0xFFFFFFFFFFFFFFFFFFFFFFFFFFFFFFFFFFFFFFFF MUL NOT AND SWAP1 DUP4 PUSH20 0xFFFFFFFFFFFFFFFFFFFFFFFFFFFFFFFFFFFFFFFF AND MUL OR SWAP1 SSTORE POP SWAP1 POP POP PUSH1 0x17 PUSH1 0x0 DUP2 SLOAD DUP1 SWAP3 SWAP2 SWAP1 PUSH1 0x1 ADD SWAP2 SWAP1 POP SSTORE POP JUMP JUMPDEST PUSH1 0x60 CALLER PUSH1 0x16 PUSH1 0x0 PUSH2 0x100 EXP DUP2 SLOAD DUP2 PUSH20 0xFFFFFFFFFFFFFFFFFFFFFFFFFFFFFFFFFFFFFFFF MUL NOT AND SWAP1 DUP4 PUSH20 0xFFFFFFFFFFFFFFFFFFFFFFFFFFFFFFFFFFFFFFFF AND MUL OR SWAP1 SSTORE POP PUSH1 0x40 DUP1 MLOAD SWAP1 DUP2 ADD PUSH1 0x40 MSTORE DUP1 PUSH1 0x0 DUP2 MSTORE PUSH1 0x20 ADD DUP3 DUP2 MSTORE POP PUSH1 0xD PUSH1 0x0 PUSH1 0x3 DUP2 LT ISZERO ISZERO PUSH2 0x44A JUMPI INVALID JUMPDEST PUSH1 0x2 MUL ADD PUSH1 0x0 DUP3 ADD MLOAD DUP2 PUSH1 0x0 ADD SSTORE PUSH1 0x20 DUP3 ADD MLOAD DUP2 PUSH1 0x1 ADD SWAP1 DUP1 MLOAD SWAP1 PUSH1 0x20 ADD SWAP1 PUSH2 0x474 SWAP3 SWAP2 SWAP1 PUSH2 0x9F1 JUMP JUMPDEST POP SWAP1 POP POP PUSH1 0x40 DUP1 MLOAD SWAP1 DUP2 ADD PUSH1 0x40 MSTORE DUP1 PUSH1 0x1 DUP2 MSTORE PUSH1 0x20 ADD DUP3 DUP2 MSTORE POP PUSH1 0xD PUSH1 0x1 PUSH1 0x3 DUP2 LT ISZERO ISZERO PUSH2 0x49E JUMPI INVALID JUMPDEST PUSH1 0x2 MUL ADD PUSH1 0x0 DUP3 ADD MLOAD DUP2 PUSH1 0x0 ADD SSTORE PUSH1 0x20 DUP3 ADD MLOAD DUP2 PUSH1 0x1 ADD SWAP1 DUP1 MLOAD SWAP1 PUSH1 0x20 ADD SWAP1 PUSH2 0x4C8 SWAP3 SWAP2 SWAP1 PUSH2 0x9F1 JUMP JUMPDEST POP SWAP1 POP POP PUSH1 0x40 DUP1 MLOAD SWAP1 DUP2 ADD PUSH1 0x40 MSTORE DUP1 PUSH1 0x2 DUP2 MSTORE PUSH1 0x20 ADD DUP3 DUP2 MSTORE POP PUSH1 0xD PUSH1 0x2 PUSH1 0x3 DUP2 LT ISZERO ISZERO PUSH2 0x4F2 JUMPI INVALID JUMPDEST PUSH1 0x2 MUL ADD PUSH1 0x0 DUP3 ADD MLOAD DUP2 PUSH1 0x0 ADD SSTORE PUSH1 0x20 DUP3 ADD MLOAD DUP2 PUSH1 0x1 ADD SWAP1 DUP1 MLOAD SWAP1 PUSH1 0x20 ADD SWAP1 PUSH2 0x51C SWAP3 SWAP2 SWAP1 PUSH2 0x9F1 JUMP JUMPDEST POP SWAP1 POP POP POP JUMP JUMPDEST PUSH1 0x16 PUSH1 0x0 SWAP1 SLOAD SWAP1 PUSH2 0x100 EXP SWAP1 DIV PUSH20 0xFFFFFFFFFFFFFFFFFFFFFFFFFFFFFFFFFFFFFFFF AND DUP2 JUMP JUMPDEST PUSH1 0x0 DUP1 PUSH1 0x0 DUP4 PUSH1 0x0 DUP1 CALLER PUSH20 0xFFFFFFFFFFFFFFFFFFFFFFFFFFFFFFFFFFFFFFFF AND PUSH20 0xFFFFFFFFFFFFFFFFFFFFFFFFFFFFFFFFFFFFFFFF AND DUP2 MSTORE PUSH1 0x20 ADD SWAP1 DUP2 MSTORE PUSH1 0x20 ADD PUSH1 0x0 KECCAK256 PUSH1 0x0 ADD SLOAD LT DUP1 PUSH2 0x5DE JUMPI POP PUSH1 0x0 DUP1 PUSH1 0x0 CALLER PUSH20 0xFFFFFFFFFFFFFFFFFFFFFFFFFFFFFFFFFFFFFFFF AND PUSH20 0xFFFFFFFFFFFFFFFFFFFFFFFFFFFFFFFFFFFFFFFF AND DUP2 MSTORE PUSH1 0x20 ADD SWAP1 DUP2 MSTORE PUSH1 0x20 ADD PUSH1 0x0 KECCAK256 PUSH1 0x0 ADD SLOAD EQ JUMPDEST ISZERO PUSH2 0x5E8 JUMPI PUSH1 0x0 DUP1 REVERT JUMPDEST PUSH1 0x2 DUP6 GT ISZERO PUSH2 0x5F6 JUMPI PUSH1 0x0 DUP1 REVERT JUMPDEST DUP4 PUSH1 0x0 DUP1 CALLER PUSH20 0xFFFFFFFFFFFFFFFFFFFFFFFFFFFFFFFFFFFFFFFF AND PUSH20 0xFFFFFFFFFFFFFFFFFFFFFFFFFFFFFFFFFFFFFFFF AND DUP2 MSTORE PUSH1 0x20 ADD SWAP1 DUP2 MSTORE PUSH1 0x20 ADD PUSH1 0x0 KECCAK256 PUSH1 0x0 ADD SLOAD SUB PUSH1 0x0 DUP1 CALLER PUSH20 0xFFFFFFFFFFFFFFFFFFFFFFFFFFFFFFFFFFFFFFFF AND PUSH20 0xFFFFFFFFFFFFFFFFFFFFFFFFFFFFFFFFFFFFFFFF AND DUP2 MSTORE PUSH1 0x20 ADD SWAP1 DUP2 MSTORE PUSH1 0x20 ADD PUSH1 0x0 KECCAK256 PUSH1 0x0 ADD DUP2 SWAP1 SSTORE POP PUSH1 0x0 DUP1 CALLER PUSH20 0xFFFFFFFFFFFFFFFFFFFFFFFFFFFFFFFFFFFFFFFF AND PUSH20 0xFFFFFFFFFFFFFFFFFFFFFFFFFFFFFFFFFFFFFFFF AND DUP2 MSTORE PUSH1 0x20 ADD SWAP1 DUP2 MSTORE PUSH1 0x20 ADD PUSH1 0x0 KECCAK256 PUSH1 0x0 ADD SLOAD SWAP3 POP DUP3 PUSH1 0x0 DUP1 CALLER PUSH20 0xFFFFFFFFFFFFFFFFFFFFFFFFFFFFFFFFFFFFFFFF AND PUSH20 0xFFFFFFFFFFFFFFFFFFFFFFFFFFFFFFFFFFFFFFFF AND DUP2 MSTORE PUSH1 0x20 ADD SWAP1 DUP2 MSTORE PUSH1 0x20 ADD PUSH1 0x0 KECCAK256 PUSH1 0x0 ADD DUP2 SWAP1 SSTORE POP DUP3 PUSH1 0x1 PUSH1 0x0 DUP1 CALLER PUSH20 0xFFFFFFFFFFFFFFFFFFFFFFFFFFFFFFFFFFFFFFFF AND PUSH20 0xFFFFFFFFFFFFFFFFFFFFFFFFFFFFFFFFFFFFFFFF AND DUP2 MSTORE PUSH1 0x20 ADD SWAP1 DUP2 MSTORE PUSH1 0x20 ADD PUSH1 0x0 KECCAK256 PUSH1 0x1 ADD SLOAD PUSH1 0x4 DUP2 LT ISZERO ISZERO PUSH2 0x75A JUMPI INVALID JUMPDEST PUSH1 0x3 MUL ADD PUSH1 0x0 ADD DUP2 SWAP1 SSTORE POP PUSH1 0xD DUP6 PUSH1 0x3 DUP2 LT ISZERO ISZERO PUSH2 0x774 JUMPI INVALID JUMPDEST PUSH1 0x2 MUL ADD SWAP2 POP PUSH1 0x0 SWAP1 POP JUMPDEST DUP4 DUP2 LT ISZERO PUSH2 0x803 JUMPI DUP2 PUSH1 0x1 ADD PUSH1 0x0 DUP1 CALLER PUSH20 0xFFFFFFFFFFFFFFFFFFFFFFFFFFFFFFFFFFFFFFFF AND PUSH20 0xFFFFFFFFFFFFFFFFFFFFFFFFFFFFFFFFFFFFFFFF AND DUP2 MSTORE PUSH1 0x20 ADD SWAP1 DUP2 MSTORE PUSH1 0x20 ADD PUSH1 0x0 KECCAK256 PUSH1 0x1 ADD SLOAD SWAP1 DUP1 PUSH1 0x1 DUP2 SLOAD ADD DUP1 DUP3 SSTORE DUP1 SWAP2 POP POP SWAP1 PUSH1 0x1 DUP3 SUB SWAP1 PUSH1 0x0 MSTORE PUSH1 0x20 PUSH1 0x0 KECCAK256 ADD PUSH1 0x0 SWAP1 SWAP2 SWAP3 SWAP1 SWAP2 SWAP1 SWAP2 POP SSTORE POP DUP1 DUP1 PUSH1 0x1 ADD SWAP2 POP POP PUSH2 0x77F JUMP JUMPDEST POP POP POP POP POP JUMP JUMPDEST PUSH1 0x0 DUP1 PUSH1 0x0 PUSH1 0x1 DUP5 PUSH1 0x4 DUP2 LT ISZERO ISZERO PUSH2 0x81E JUMPI INVALID JUMPDEST PUSH1 0x3 MUL ADD PUSH1 0x0 ADD SLOAD PUSH1 0x1 DUP6 PUSH1 0x4 DUP2 LT ISZERO ISZERO PUSH2 0x835 JUMPI INVALID JUMPDEST PUSH1 0x3 MUL ADD PUSH1 0x1 ADD SLOAD PUSH1 0x1 DUP7 PUSH1 0x4 DUP2 LT ISZERO ISZERO PUSH2 0x84C JUMPI INVALID JUMPDEST PUSH1 0x3 MUL ADD PUSH1 0x2 ADD PUSH1 0x0 SWAP1 SLOAD SWAP1 PUSH2 0x100 EXP SWAP1 DIV PUSH20 0xFFFFFFFFFFFFFFFFFFFFFFFFFFFFFFFFFFFFFFFF AND SWAP3 POP SWAP3 POP SWAP3 POP SWAP2 SWAP4 SWAP1 SWAP3 POP JUMP JUMPDEST PUSH1 0x0 DUP1 PUSH1 0x0 DUP1 PUSH1 0x0 SWAP4 POP JUMPDEST PUSH1 0x3 DUP5 LT ISZERO PUSH2 0x993 JUMPI PUSH1 0xD DUP5 PUSH1 0x3 DUP2 LT ISZERO ISZERO PUSH2 0x8A4 JUMPI INVALID JUMPDEST PUSH1 0x2 MUL ADD SWAP3 POP PUSH1 0x0 DUP4 PUSH1 0x1 ADD DUP1 SLOAD SWAP1 POP EQ ISZERO ISZERO PUSH2 0x986 JUMPI DUP3 PUSH1 0x1 ADD DUP1 SLOAD SWAP1 POP DUP4 PUSH1 0x1 ADD DUP1 SLOAD SWAP1 POP NUMBER DUP2 ISZERO ISZERO PUSH2 0x8D5 JUMPI INVALID JUMPDEST DIV DUP2 ISZERO ISZERO PUSH2 0x8DF JUMPI INVALID JUMPDEST MOD SWAP2 POP DUP3 PUSH1 0x1 ADD DUP3 DUP2 SLOAD DUP2 LT ISZERO ISZERO PUSH2 0x8F3 JUMPI INVALID JUMPDEST SWAP1 PUSH1 0x0 MSTORE PUSH1 0x20 PUSH1 0x0 KECCAK256 ADD SLOAD SWAP1 POP PUSH1 0x1 DUP2 PUSH1 0x4 DUP2 LT ISZERO ISZERO PUSH2 0x90F JUMPI INVALID JUMPDEST PUSH1 0x3 MUL ADD PUSH1 0x2 ADD PUSH1 0x0 SWAP1 SLOAD SWAP1 PUSH2 0x100 EXP SWAP1 DIV PUSH20 0xFFFFFFFFFFFFFFFFFFFFFFFFFFFFFFFFFFFFFFFF AND PUSH1 0x13 DUP6 PUSH1 0x3 DUP2 LT ISZERO ISZERO PUSH2 0x946 JUMPI INVALID JUMPDEST ADD PUSH1 0x0 PUSH2 0x100 EXP DUP2 SLOAD DUP2 PUSH20 0xFFFFFFFFFFFFFFFFFFFFFFFFFFFFFFFFFFFFFFFF MUL NOT AND SWAP1 DUP4 PUSH20 0xFFFFFFFFFFFFFFFFFFFFFFFFFFFFFFFFFFFFFFFF AND MUL OR SWAP1 SSTORE POP JUMPDEST DUP4 DUP1 PUSH1 0x1 ADD SWAP5 POP POP PUSH2 0x88C JUMP JUMPDEST POP POP POP POP JUMP JUMPDEST PUSH1 0x13 DUP2 PUSH1 0x3 DUP2 LT ISZERO ISZERO PUSH2 0x9A8 JUMPI INVALID JUMPDEST ADD PUSH1 0x0 SWAP2 POP SLOAD SWAP1 PUSH2 0x100 EXP SWAP1 DIV PUSH20 0xFFFFFFFFFFFFFFFFFFFFFFFFFFFFFFFFFFFFFFFF AND DUP2 JUMP JUMPDEST PUSH1 0xD DUP2 PUSH1 0x3 DUP2 LT ISZERO ISZERO PUSH2 0x9DD JUMPI INVALID JUMPDEST PUSH1 0x2 MUL ADD PUSH1 0x0 SWAP2 POP SWAP1 POP DUP1 PUSH1 0x0 ADD SLOAD SWAP1 POP DUP2 JUMP JUMPDEST DUP3 DUP1 SLOAD DUP3 DUP3 SSTORE SWAP1 PUSH1 0x0 MSTORE PUSH1 0x20 PUSH1 0x0 KECCAK256 SWAP1 DUP2 ADD SWAP3 DUP3 ISZERO PUSH2 0xA2D JUMPI SWAP2 PUSH1 0x20 MUL DUP3 ADD JUMPDEST DUP3 DUP2 GT ISZERO PUSH2 0xA2C JUMPI DUP3 MLOAD DUP3 SSTORE SWAP2 PUSH1 0x20 ADD SWAP2 SWAP1 PUSH1 0x1 ADD SWAP1 PUSH2 0xA11 JUMP JUMPDEST JUMPDEST POP SWAP1 POP PUSH2 0xA3A SWAP2 SWAP1 PUSH2 0xA3E JUMP JUMPDEST POP SWAP1 JUMP JUMPDEST PUSH2 0xA60 SWAP2 SWAP1 JUMPDEST DUP1 DUP3 GT ISZERO PUSH2 0xA5C JUMPI PUSH1 0x0 DUP2 PUSH1 0x0 SWAP1 SSTORE POP PUSH1 0x1 ADD PUSH2 0xA44 JUMP JUMPDEST POP SWAP1 JUMP JUMPDEST SWAP1 JUMP STOP LOG1 PUSH6 0x627A7A723058 KECCAK256 CODESIZE 0x23 0x5e DUP10 0x4d EXTCODECOPY PUSH7 0x917CC5EFC3F831 0x2f KECCAK256 0xbe 0xc0 DUP5 PUSH25 0x22DC69BE9A254A1ECB5BEE9500290000000000000000000000 "
		},
		"gasEstimates": {
			"creation": {
				"codeDepositCost": "540600",
				"executionCost": "5581",
				"totalCost": "546181"
			},
			"external": {
				"AuctionConstructor()": "infinite",
				"beneficiary()": "486",
				"bid(uint256,uint256)": "infinite",
				"getPersonDetails(uint256)": "1214",
				"items(uint256)": "674",
				"register()": "142883",
				"revealWinners()": "infinite",
				"winners(uint256)": "667"
			}
		},
		"methodIdentifiers": {
			"AuctionConstructor()": "2d8804b5",
			"beneficiary()": "38af3eed",
			"bid(uint256,uint256)": "598647f8",
			"getPersonDetails(uint256)": "60981705",
			"items(uint256)": "bfb231d2",
			"register()": "1aa3a008",
			"revealWinners()": "952587d6",
			"winners(uint256)": "a2fb1175"
		}
	},
	"abi": [
		{
			"constant": false,
			"inputs": [],
			"name": "register",
			"outputs": [],
			"payable": true,
			"stateMutability": "payable",
			"type": "function"
		},
		{
			"constant": false,
			"inputs": [],
			"name": "AuctionConstructor",
			"outputs": [],
			"payable": true,
			"stateMutability": "payable",
			"type": "function"
		},
		{
			"constant": true,
			"inputs": [],
			"name": "beneficiary",
			"outputs": [
				{
					"name": "",
					"type": "address"
				}
			],
			"payable": false,
			"stateMutability": "view",
			"type": "function"
		},
		{
			"constant": false,
			"inputs": [
				{
					"name": "_itemId",
					"type": "uint256"
				},
				{
					"name": "_count",
					"type": "uint256"
				}
			],
			"name": "bid",
			"outputs": [],
			"payable": true,
			"stateMutability": "payable",
			"type": "function"
		},
		{
			"constant": true,
			"inputs": [
				{
					"name": "id",
					"type": "uint256"
				}
			],
			"name": "getPersonDetails",
			"outputs": [
				{
					"name": "",
					"type": "uint256"
				},
				{
					"name": "",
					"type": "uint256"
				},
				{
					"name": "",
					"type": "address"
				}
			],
			"payable": false,
			"stateMutability": "view",
			"type": "function"
		},
		{
			"constant": false,
			"inputs": [],
			"name": "revealWinners",
			"outputs": [],
			"payable": false,
			"stateMutability": "nonpayable",
			"type": "function"
		},
		{
			"constant": true,
			"inputs": [
				{
					"name": "",
					"type": "uint256"
				}
			],
			"name": "winners",
			"outputs": [
				{
					"name": "",
					"type": "address"
				}
			],
			"payable": false,
			"stateMutability": "view",
			"type": "function"
		},
		{
			"constant": true,
			"inputs": [
				{
					"name": "",
					"type": "uint256"
				}
			],
			"name": "items",
			"outputs": [
				{
					"name": "itemId",
					"type": "uint256"
				}
			],
			"payable": false,
			"stateMutability": "view",
			"type": "function"
		}
	]
}